{
  "contractName": "CowNFT",
  "abi": [
    {
      "inputs": [],
      "stateMutability": "nonpayable",
      "type": "constructor"
    },
    {
      "anonymous": false,
      "inputs": [
        {
          "indexed": true,
          "internalType": "address",
          "name": "owner",
          "type": "address"
        },
        {
          "indexed": true,
          "internalType": "address",
          "name": "approved",
          "type": "address"
        },
        {
          "indexed": true,
          "internalType": "uint256",
          "name": "tokenId",
          "type": "uint256"
        }
      ],
      "name": "Approval",
      "type": "event"
    },
    {
      "anonymous": false,
      "inputs": [
        {
          "indexed": true,
          "internalType": "address",
          "name": "owner",
          "type": "address"
        },
        {
          "indexed": true,
          "internalType": "address",
          "name": "operator",
          "type": "address"
        },
        {
          "indexed": false,
          "internalType": "bool",
          "name": "approved",
          "type": "bool"
        }
      ],
      "name": "ApprovalForAll",
      "type": "event"
    },
    {
      "anonymous": false,
      "inputs": [
        {
          "indexed": true,
          "internalType": "address",
          "name": "contractAddress",
          "type": "address"
        },
        {
          "indexed": true,
          "internalType": "address",
          "name": "sender",
          "type": "address"
        }
      ],
      "name": "EventMaxSupplysAndPrices",
      "type": "event"
    },
    {
      "anonymous": false,
      "inputs": [
        {
          "indexed": false,
          "internalType": "address",
          "name": "sender",
          "type": "address"
        },
        {
          "indexed": false,
          "internalType": "string",
          "name": "baseURL",
          "type": "string"
        }
      ],
      "name": "EventSetBaseURL",
      "type": "event"
    },
    {
      "anonymous": false,
      "inputs": [
        {
          "indexed": false,
          "internalType": "address",
          "name": "sender",
          "type": "address"
        },
        {
          "indexed": false,
          "internalType": "uint256",
          "name": "TYPE_COUNT",
          "type": "uint256"
        },
        {
          "components": [
            {
              "internalType": "string",
              "name": "name",
              "type": "string"
            },
            {
              "internalType": "string",
              "name": "description",
              "type": "string"
            },
            {
              "internalType": "string",
              "name": "meta_hash",
              "type": "string"
            },
            {
              "internalType": "uint256",
              "name": "total_supply",
              "type": "uint256"
            },
            {
              "internalType": "uint256",
              "name": "max_supply",
              "type": "uint256"
            },
            {
              "internalType": "uint256",
              "name": "price",
              "type": "uint256"
            }
          ],
          "indexed": false,
          "internalType": "struct CowNFT.CowType",
          "name": "cow_type",
          "type": "tuple"
        }
      ],
      "name": "EventType",
      "type": "event"
    },
    {
      "anonymous": false,
      "inputs": [
        {
          "indexed": true,
          "internalType": "address",
          "name": "contractAddress",
          "type": "address"
        },
        {
          "indexed": true,
          "internalType": "address",
          "name": "creator",
          "type": "address"
        },
        {
          "indexed": true,
          "internalType": "uint256",
          "name": "tokenId",
          "type": "uint256"
        },
        {
          "indexed": false,
          "internalType": "string",
          "name": "meta_hash",
          "type": "string"
        }
      ],
      "name": "MetaHashUpdated",
      "type": "event"
    },
    {
      "anonymous": false,
      "inputs": [
        {
          "indexed": true,
          "internalType": "address",
          "name": "contractAddress",
          "type": "address"
        },
        {
          "indexed": true,
          "internalType": "address",
          "name": "creator",
          "type": "address"
        }
      ],
      "name": "MetaHashesUpdated",
      "type": "event"
    },
    {
      "anonymous": false,
      "inputs": [
        {
          "indexed": true,
          "internalType": "address",
          "name": "previousOwner",
          "type": "address"
        },
        {
          "indexed": true,
          "internalType": "address",
          "name": "newOwner",
          "type": "address"
        }
      ],
      "name": "OwnershipTransferred",
      "type": "event"
    },
    {
      "anonymous": false,
      "inputs": [
        {
          "indexed": true,
          "internalType": "address",
          "name": "contractAddress",
          "type": "address"
        },
        {
          "indexed": true,
          "internalType": "address",
          "name": "creator",
          "type": "address"
        },
        {
          "indexed": true,
          "internalType": "uint256",
          "name": "tokenId",
          "type": "uint256"
        }
      ],
      "name": "TokenCreated",
      "type": "event"
    },
    {
      "anonymous": false,
      "inputs": [
        {
          "indexed": true,
          "internalType": "address",
          "name": "contractAddress",
          "type": "address"
        },
        {
          "indexed": true,
          "internalType": "address",
          "name": "creator",
          "type": "address"
        },
        {
          "indexed": false,
          "internalType": "bool",
          "name": "priceMatched",
          "type": "bool"
        }
      ],
      "name": "TokensCreated",
      "type": "event"
    },
    {
      "anonymous": false,
      "inputs": [
        {
          "indexed": true,
          "internalType": "address",
          "name": "from",
          "type": "address"
        },
        {
          "indexed": true,
          "internalType": "address",
          "name": "to",
          "type": "address"
        },
        {
          "indexed": true,
          "internalType": "uint256",
          "name": "tokenId",
          "type": "uint256"
        }
      ],
      "name": "Transfer",
      "type": "event"
    },
    {
      "inputs": [],
      "name": "TOKEN_COUNT",
      "outputs": [
        {
          "internalType": "uint256",
          "name": "",
          "type": "uint256"
        }
      ],
      "stateMutability": "view",
      "type": "function",
      "constant": true
    },
    {
      "inputs": [],
      "name": "TYPE_COUNT",
      "outputs": [
        {
          "internalType": "uint256",
          "name": "",
          "type": "uint256"
        }
      ],
      "stateMutability": "view",
      "type": "function",
      "constant": true
    },
    {
      "inputs": [
        {
          "internalType": "address",
          "name": "to",
          "type": "address"
        },
        {
          "internalType": "uint256",
          "name": "tokenId",
          "type": "uint256"
        }
      ],
      "name": "approve",
      "outputs": [],
      "stateMutability": "nonpayable",
      "type": "function"
    },
    {
      "inputs": [
        {
          "internalType": "address",
          "name": "owner",
          "type": "address"
        }
      ],
      "name": "balanceOf",
      "outputs": [
        {
          "internalType": "uint256",
          "name": "",
          "type": "uint256"
        }
      ],
      "stateMutability": "view",
      "type": "function",
      "constant": true
    },
    {
      "inputs": [
        {
          "internalType": "address",
          "name": "",
          "type": "address"
        },
        {
          "internalType": "uint256",
          "name": "",
          "type": "uint256"
        }
      ],
      "name": "balance_of_type",
      "outputs": [
        {
          "internalType": "uint256",
          "name": "",
          "type": "uint256"
        }
      ],
      "stateMutability": "view",
      "type": "function",
      "constant": true
    },
    {
      "inputs": [],
      "name": "base_url",
      "outputs": [
        {
          "internalType": "string",
          "name": "",
          "type": "string"
        }
      ],
      "stateMutability": "view",
      "type": "function",
      "constant": true
    },
    {
      "inputs": [
        {
          "internalType": "uint256",
          "name": "tokenId",
          "type": "uint256"
        }
      ],
      "name": "burn",
      "outputs": [],
      "stateMutability": "nonpayable",
      "type": "function"
    },
    {
      "inputs": [
        {
          "internalType": "uint256",
          "name": "",
          "type": "uint256"
        }
      ],
      "name": "cow_types",
      "outputs": [
        {
          "internalType": "string",
          "name": "name",
          "type": "string"
        },
        {
          "internalType": "string",
          "name": "description",
          "type": "string"
        },
        {
          "internalType": "string",
          "name": "meta_hash",
          "type": "string"
        },
        {
          "internalType": "uint256",
          "name": "total_supply",
          "type": "uint256"
        },
        {
          "internalType": "uint256",
          "name": "max_supply",
          "type": "uint256"
        },
        {
          "internalType": "uint256",
          "name": "price",
          "type": "uint256"
        }
      ],
      "stateMutability": "view",
      "type": "function",
      "constant": true
    },
    {
      "inputs": [
        {
          "internalType": "uint256",
          "name": "tokenId",
          "type": "uint256"
        }
      ],
      "name": "getApproved",
      "outputs": [
        {
          "internalType": "address",
          "name": "",
          "type": "address"
        }
      ],
      "stateMutability": "view",
      "type": "function",
      "constant": true
    },
    {
      "inputs": [
        {
          "internalType": "address",
          "name": "owner",
          "type": "address"
        },
        {
          "internalType": "address",
          "name": "operator",
          "type": "address"
        }
      ],
      "name": "isApprovedForAll",
      "outputs": [
        {
          "internalType": "bool",
          "name": "",
          "type": "bool"
        }
      ],
      "stateMutability": "view",
      "type": "function",
      "constant": true
    },
    {
      "inputs": [],
      "name": "name",
      "outputs": [
        {
          "internalType": "string",
          "name": "",
          "type": "string"
        }
      ],
      "stateMutability": "view",
      "type": "function",
      "constant": true
    },
    {
      "inputs": [],
      "name": "owner",
      "outputs": [
        {
          "internalType": "address",
          "name": "",
          "type": "address"
        }
      ],
      "stateMutability": "view",
      "type": "function",
      "constant": true
    },
    {
      "inputs": [
        {
          "internalType": "uint256",
          "name": "tokenId",
          "type": "uint256"
        }
      ],
      "name": "ownerOf",
      "outputs": [
        {
          "internalType": "address",
          "name": "",
          "type": "address"
        }
      ],
      "stateMutability": "view",
      "type": "function",
      "constant": true
    },
    {
      "inputs": [],
      "name": "renounceOwnership",
      "outputs": [],
      "stateMutability": "nonpayable",
      "type": "function"
    },
    {
      "inputs": [
        {
          "internalType": "address",
          "name": "from",
          "type": "address"
        },
        {
          "internalType": "address",
          "name": "to",
          "type": "address"
        },
        {
          "internalType": "uint256",
          "name": "tokenId",
          "type": "uint256"
        }
      ],
      "name": "safeTransferFrom",
      "outputs": [],
      "stateMutability": "nonpayable",
      "type": "function"
    },
    {
      "inputs": [
        {
          "internalType": "address",
          "name": "from",
          "type": "address"
        },
        {
          "internalType": "address",
          "name": "to",
          "type": "address"
        },
        {
          "internalType": "uint256",
          "name": "tokenId",
          "type": "uint256"
        },
        {
          "internalType": "bytes",
          "name": "_data",
          "type": "bytes"
        }
      ],
      "name": "safeTransferFrom",
      "outputs": [],
      "stateMutability": "nonpayable",
      "type": "function"
    },
    {
      "inputs": [
        {
          "internalType": "address",
          "name": "operator",
          "type": "address"
        },
        {
          "internalType": "bool",
          "name": "approved",
          "type": "bool"
        }
      ],
      "name": "setApprovalForAll",
      "outputs": [],
      "stateMutability": "nonpayable",
      "type": "function"
    },
    {
      "inputs": [],
      "name": "symbol",
      "outputs": [
        {
          "internalType": "string",
          "name": "",
          "type": "string"
        }
      ],
      "stateMutability": "view",
      "type": "function",
      "constant": true
    },
    {
      "inputs": [
        {
          "internalType": "uint256",
          "name": "index",
          "type": "uint256"
        }
      ],
      "name": "tokenByIndex",
      "outputs": [
        {
          "internalType": "uint256",
          "name": "",
          "type": "uint256"
        }
      ],
      "stateMutability": "view",
      "type": "function",
      "constant": true
    },
    {
      "inputs": [
        {
          "internalType": "address",
          "name": "owner",
          "type": "address"
        },
        {
          "internalType": "uint256",
          "name": "index",
          "type": "uint256"
        }
      ],
      "name": "tokenOfOwnerByIndex",
      "outputs": [
        {
          "internalType": "uint256",
          "name": "",
          "type": "uint256"
        }
      ],
      "stateMutability": "view",
      "type": "function",
      "constant": true
    },
    {
      "inputs": [
        {
          "internalType": "uint256",
          "name": "",
          "type": "uint256"
        }
      ],
      "name": "token_types",
      "outputs": [
        {
          "internalType": "uint256",
          "name": "",
          "type": "uint256"
        }
      ],
      "stateMutability": "view",
      "type": "function",
      "constant": true
    },
    {
      "inputs": [],
      "name": "totalSupply",
      "outputs": [
        {
          "internalType": "uint256",
          "name": "",
          "type": "uint256"
        }
      ],
      "stateMutability": "view",
      "type": "function",
      "constant": true
    },
    {
      "inputs": [
        {
          "internalType": "address",
          "name": "from",
          "type": "address"
        },
        {
          "internalType": "address",
          "name": "to",
          "type": "address"
        },
        {
          "internalType": "uint256",
          "name": "tokenId",
          "type": "uint256"
        }
      ],
      "name": "transferFrom",
      "outputs": [],
      "stateMutability": "nonpayable",
      "type": "function"
    },
    {
      "inputs": [
        {
          "internalType": "address",
          "name": "newOwner",
          "type": "address"
        }
      ],
      "name": "transferOwnership",
      "outputs": [],
      "stateMutability": "nonpayable",
      "type": "function"
    },
    {
      "inputs": [
        {
          "internalType": "string",
          "name": "",
          "type": "string"
        }
      ],
      "name": "type_names",
      "outputs": [
        {
          "internalType": "uint256",
          "name": "",
          "type": "uint256"
        }
      ],
      "stateMutability": "view",
      "type": "function",
      "constant": true
    },
    {
      "inputs": [
        {
          "internalType": "bytes4",
          "name": "interfaceId",
          "type": "bytes4"
        }
      ],
      "name": "supportsInterface",
      "outputs": [
        {
          "internalType": "bool",
          "name": "",
          "type": "bool"
        }
      ],
      "stateMutability": "view",
      "type": "function",
      "constant": true
    },
    {
      "inputs": [
        {
          "internalType": "uint256",
          "name": "token_id",
          "type": "uint256"
        }
      ],
      "name": "tokenURI",
      "outputs": [
        {
          "internalType": "string",
          "name": "",
          "type": "string"
        }
      ],
      "stateMutability": "view",
      "type": "function",
      "constant": true
    },
    {
      "inputs": [
        {
          "internalType": "string",
          "name": "url",
          "type": "string"
        }
      ],
      "name": "setBaseURI",
      "outputs": [
        {
          "internalType": "string",
          "name": "",
          "type": "string"
        }
      ],
      "stateMutability": "nonpayable",
      "type": "function"
    },
    {
      "inputs": [
        {
          "internalType": "uint256",
          "name": "type_id",
          "type": "uint256"
        }
      ],
      "name": "typeURI",
      "outputs": [
        {
          "internalType": "string",
          "name": "",
          "type": "string"
        }
      ],
      "stateMutability": "view",
      "type": "function",
      "constant": true
    },
    {
      "inputs": [
        {
          "internalType": "string",
          "name": "type_name",
          "type": "string"
        },
        {
          "internalType": "string",
          "name": "description",
          "type": "string"
        },
        {
          "internalType": "string",
          "name": "meta_hash",
          "type": "string"
        },
        {
          "internalType": "uint256",
          "name": "total_supply",
          "type": "uint256"
        },
        {
          "internalType": "uint256",
          "name": "max_supply",
          "type": "uint256"
        },
        {
          "internalType": "uint256",
          "name": "price",
          "type": "uint256"
        }
      ],
      "name": "addType",
      "outputs": [],
      "stateMutability": "nonpayable",
      "type": "function"
    },
    {
      "inputs": [
        {
          "internalType": "uint256[]",
          "name": "type_ids",
          "type": "uint256[]"
        },
        {
          "internalType": "string[]",
          "name": "_meta_hashes",
          "type": "string[]"
        }
      ],
      "name": "updateMetaHashes",
      "outputs": [],
      "stateMutability": "nonpayable",
      "type": "function"
    },
    {
      "inputs": [
        {
          "internalType": "uint256[]",
          "name": "type_ids",
          "type": "uint256[]"
        },
        {
          "internalType": "uint256[]",
          "name": "amounts",
          "type": "uint256[]"
        },
        {
          "internalType": "uint256[]",
          "name": "prices",
          "type": "uint256[]"
        }
      ],
      "name": "updateMaxSupplysAndPrices",
      "outputs": [],
      "stateMutability": "nonpayable",
      "type": "function"
    },
    {
      "inputs": [
        {
          "internalType": "uint256[]",
          "name": "type_ids",
          "type": "uint256[]"
        },
        {
          "internalType": "uint256[]",
          "name": "amounts",
          "type": "uint256[]"
        }
      ],
      "name": "getPrice",
      "outputs": [
        {
          "internalType": "uint256",
          "name": "price",
          "type": "uint256"
        }
      ],
      "stateMutability": "view",
      "type": "function",
      "constant": true
    },
    {
      "inputs": [
        {
          "internalType": "address",
          "name": "sender",
          "type": "address"
        },
        {
          "internalType": "uint256[]",
          "name": "type_ids",
          "type": "uint256[]"
        },
        {
          "internalType": "uint256[]",
          "name": "amounts",
          "type": "uint256[]"
        }
      ],
      "name": "createTokens",
      "outputs": [],
      "stateMutability": "payable",
      "type": "function",
      "payable": true
    },
    {
      "inputs": [],
      "name": "typesStatus",
      "outputs": [
        {
          "internalType": "uint256[]",
          "name": "mines",
          "type": "uint256[]"
        }
      ],
      "stateMutability": "view",
      "type": "function",
      "constant": true
    }
  ],
  "bytecode": "0x60806040526001600b556001600c553480156200001b57600080fd5b506040518060400160405280600881526020017f436f77546f6b656e0000000000000000000000000000000000000000000000008152506040518060400160405280600281526020017f43540000000000000000000000000000000000000000000000000000000000008152508160009080519060200190620000a09291906200081e565b508060019080519060200190620000b99291906200081e565b505050620000dc620000d0620003b160201b60201c565b620003b960201b60201c565b604051806060016040528060278152602001620061c460279139600d90805190602001906200010d9291906200081e565b506200011f336200047f60201b60201c565b620001c26040518060400160405280600c81526020017f47756572796e737920436f7700000000000000000000000000000000000000008152506040518060400160405280600c81526020017f47756572796e737920436f7700000000000000000000000000000000000000008152506040518060600160405280602e81526020016200613a602e913960006103e8662386f26fc100006200059560201b60201c565b620002656040518060400160405280600a81526020017f4a657273657920436f77000000000000000000000000000000000000000000008152506040518060400160405280600a81526020017f4a657273657920436f77000000000000000000000000000000000000000000008152506040518060600160405280602e815260200162006168602e913960006103e8662386f26fc100006200059560201b60201c565b620003086040518060400160405280600e81526020017f42726f776e537769737320436f770000000000000000000000000000000000008152506040518060400160405280600e81526020017f42726f776e537769737320436f770000000000000000000000000000000000008152506040518060600160405280602e815260200162006196602e913960006101f466470de4df8200006200059560201b60201c565b620003ab6040518060400160405280600c81526020017f486f6c737465696e20436f7700000000000000000000000000000000000000008152506040518060400160405280600c81526020017f486f6c737465696e20436f7700000000000000000000000000000000000000008152506040518060600160405280602e81526020016200610c602e913960006101f4666a94d74f4300006200059560201b60201c565b62000e79565b600033905090565b6000600a60009054906101000a900473ffffffffffffffffffffffffffffffffffffffff16905081600a60006101000a81548173ffffffffffffffffffffffffffffffffffffffff021916908373ffffffffffffffffffffffffffffffffffffffff1602179055508173ffffffffffffffffffffffffffffffffffffffff168173ffffffffffffffffffffffffffffffffffffffff167f8be0079c531659141344cd1fd0a4f28419497f9722a3daafe3b4186f6b6457e060405160405180910390a35050565b6200048f620003b160201b60201c565b73ffffffffffffffffffffffffffffffffffffffff16620004b5620007f460201b60201c565b73ffffffffffffffffffffffffffffffffffffffff16146200050e576040517f08c379a000000000000000000000000000000000000000000000000000000000815260040162000505906200092f565b60405180910390fd5b600073ffffffffffffffffffffffffffffffffffffffff168173ffffffffffffffffffffffffffffffffffffffff16141562000581576040517f08c379a00000000000000000000000000000000000000000000000000000000081526004016200057890620009c7565b60405180910390fd5b6200059281620003b960201b60201c565b50565b620005a5620003b160201b60201c565b73ffffffffffffffffffffffffffffffffffffffff16620005cb620007f460201b60201c565b73ffffffffffffffffffffffffffffffffffffffff161462000624576040517f08c379a00000000000000000000000000000000000000000000000000000000081526004016200061b906200092f565b60405180910390fd5b6000600f8760405162000638919062000a6c565b908152602001604051809103902054146200068a576040517f08c379a0000000000000000000000000000000000000000000000000000000008152600401620006819062000ad5565b60405180910390fd5b600c54600f876040516200069f919062000a6c565b9081526020016040518091039020819055506040518060c0016040528087815260200186815260200185815260200184815260200183815260200182815250600e6000600c5481526020019081526020016000206000820151816000019080519060200190620007119291906200081e565b506020820151816001019080519060200190620007309291906200081e565b5060408201518160020190805190602001906200074f9291906200081e565b50606082015181600301556080820151816004015560a08201518160050155905050600c6000815480929190620007869062000b30565b91905055507f3f5fd1148dbde084a4018de8c073cd8b3b4c5a8f3adc2636d0be5bba0bc0728333600c54600e60006001600c54620007c5919062000b7e565b8152602001908152602001600020604051620007e49392919062000e35565b60405180910390a1505050505050565b6000600a60009054906101000a900473ffffffffffffffffffffffffffffffffffffffff16905090565b8280546200082c9062000c3e565b90600052602060002090601f0160209004810192826200085057600085556200089c565b82601f106200086b57805160ff19168380011785556200089c565b828001600101855582156200089c579182015b828111156200089b5782518255916020019190600101906200087e565b5b509050620008ab9190620008af565b5090565b5b80821115620008ca576000816000905550600101620008b0565b5090565b600082825260208201905092915050565b7f4f776e61626c653a2063616c6c6572206973206e6f7420746865206f776e6572600082015250565b600062000917602083620008ce565b91506200092482620008df565b602082019050919050565b600060208201905081810360008301526200094a8162000908565b9050919050565b7f4f776e61626c653a206e6577206f776e657220697320746865207a65726f206160008201527f6464726573730000000000000000000000000000000000000000000000000000602082015250565b6000620009af602683620008ce565b9150620009bc8262000951565b604082019050919050565b60006020820190508181036000830152620009e281620009a0565b9050919050565b600081519050919050565b600081905092915050565b60005b8381101562000a1f57808201518184015260208101905062000a02565b8381111562000a2f576000848401525b50505050565b600062000a4282620009e9565b62000a4e8185620009f4565b935062000a60818560208601620009ff565b80840191505092915050565b600062000a7a828462000a35565b915081905092915050565b7f416c726561647920657869737473210000000000000000000000000000000000600082015250565b600062000abd600f83620008ce565b915062000aca8262000a85565b602082019050919050565b6000602082019050818103600083015262000af08162000aae565b9050919050565b7f4e487b7100000000000000000000000000000000000000000000000000000000600052601160045260246000fd5b6000819050919050565b600062000b3d8262000b26565b91507fffffffffffffffffffffffffffffffffffffffffffffffffffffffffffffffff82141562000b735762000b7262000af7565b5b600182019050919050565b600062000b8b8262000b26565b915062000b988362000b26565b92508282101562000bae5762000bad62000af7565b5b828203905092915050565b600073ffffffffffffffffffffffffffffffffffffffff82169050919050565b600062000be68262000bb9565b9050919050565b62000bf88162000bd9565b82525050565b62000c098162000b26565b82525050565b7f4e487b7100000000000000000000000000000000000000000000000000000000600052602260045260246000fd5b6000600282049050600182168062000c5757607f821691505b6020821081141562000c6e5762000c6d62000c0f565b5b50919050565b600082825260208201905092915050565b60008190508160005260206000209050919050565b6000815462000ca98162000c3e565b62000cb5818662000c74565b9450600182166000811462000cd3576001811462000ce65762000d1d565b60ff198316865260208601935062000d1d565b62000cf18562000c85565b60005b8381101562000d155781548189015260018201915060208101905062000cf4565b808801955050505b50505092915050565b60008160001c9050919050565b6000819050919050565b600062000d5462000d4e8362000d26565b62000d33565b9050919050565b62000d668162000b26565b82525050565b600060c083016000808401858303600087015262000d8b838262000c9a565b92505060018401858303602087015262000da6838262000c9a565b92505060028401858303604087015262000dc1838262000c9a565b9250506003840154905062000dd68162000d3d565b62000de5606087018262000d5b565b506004840154905062000df88162000d3d565b62000e07608087018262000d5b565b506005840154905062000e1a8162000d3d565b62000e2960a087018262000d5b565b50819250505092915050565b600060608201905062000e4c600083018662000bed565b62000e5b602083018562000bfe565b818103604083015262000e6f818462000d6c565b9050949350505050565b6152838062000e896000396000f3fe6080604052600436106102045760003560e01c8063594cccee11610118578063b143c421116100a0578063caa6be121161006f578063caa6be12146107ee578063e985e9c514610819578063f2fde38b14610856578063f38320ce1461087f578063fc7f562a1461089b57610204565b8063b143c4211461070e578063b88d4fde1461074b578063c87b56dd14610774578063c8c0eba8146107b157610204565b8063715018a6116100e7578063715018a61461064f57806386d288f1146106665780638da5cb5b1461068f57806395d89b41146106ba578063a22cb465146106e557610204565b8063594cccee146105565780636352211e14610598578063639bf24d146105d557806370a082311461061257610204565b80632f745c591161019b57806342966c681161016a57806342966c681461044d57806343c0b8aa1461047657806349cfa4d81461049f5780634f6ccce7146104dc57806355f804b31461051957610204565b80632f745c591461037f57806333a1bb26146103bc57806336698be3146103e757806342842e0e1461042457610204565b806318160ddd116101d757806318160ddd146102d757806319d2392e1461030257806323b872dd1461032d5780632ab802b71461035657610204565b806301ffc9a71461020957806306fdde0314610246578063081812fc14610271578063095ea7b3146102ae575b600080fd5b34801561021557600080fd5b50610230600480360381019061022b9190613418565b6108c6565b60405161023d9190613460565b60405180910390f35b34801561025257600080fd5b5061025b6108d8565b6040516102689190613514565b60405180910390f35b34801561027d57600080fd5b506102986004803603810190610293919061356c565b61096a565b6040516102a591906135da565b60405180910390f35b3480156102ba57600080fd5b506102d560048036038101906102d09190613621565b6109ef565b005b3480156102e357600080fd5b506102ec610b07565b6040516102f99190613670565b60405180910390f35b34801561030e57600080fd5b50610317610b14565b6040516103249190613670565b60405180910390f35b34801561033957600080fd5b50610354600480360381019061034f919061368b565b610b1a565b005b34801561036257600080fd5b5061037d60048036038101906103789190613813565b610b7a565b005b34801561038b57600080fd5b506103a660048036038101906103a19190613621565b610db3565b6040516103b39190613670565b60405180910390f35b3480156103c857600080fd5b506103d1610e58565b6040516103de9190613514565b60405180910390f35b3480156103f357600080fd5b5061040e600480360381019061040991906139bc565b610ee6565b60405161041b9190613670565b60405180910390f35b34801561043057600080fd5b5061044b6004803603810190610446919061368b565b610f70565b005b34801561045957600080fd5b50610474600480360381019061046f919061356c565b610f90565b005b34801561048257600080fd5b5061049d60048036038101906104989190613a34565b610fec565b005b3480156104ab57600080fd5b506104c660048036038101906104c19190613adb565b6111ea565b6040516104d39190613670565b60405180910390f35b3480156104e857600080fd5b5061050360048036038101906104fe919061356c565b611218565b6040516105109190613670565b60405180910390f35b34801561052557600080fd5b50610540600480360381019061053b9190613adb565b611289565b60405161054d9190613514565b60405180910390f35b34801561056257600080fd5b5061057d6004803603810190610578919061356c565b61135d565b60405161058f96959493929190613b24565b60405180910390f35b3480156105a457600080fd5b506105bf60048036038101906105ba919061356c565b611531565b6040516105cc91906135da565b60405180910390f35b3480156105e157600080fd5b506105fc60048036038101906105f7919061356c565b6115e3565b6040516106099190613670565b60405180910390f35b34801561061e57600080fd5b5061063960048036038101906106349190613b9a565b6115fb565b6040516106469190613670565b60405180910390f35b34801561065b57600080fd5b506106646116b3565b005b34801561067257600080fd5b5061068d60048036038101906106889190613ca8565b61173b565b005b34801561069b57600080fd5b506106a4611894565b6040516106b191906135da565b60405180910390f35b3480156106c657600080fd5b506106cf6118be565b6040516106dc9190613514565b60405180910390f35b3480156106f157600080fd5b5061070c60048036038101906107079190613d4c565b611950565b005b34801561071a57600080fd5b506107356004803603810190610730919061356c565b611966565b6040516107429190613514565b60405180910390f35b34801561075757600080fd5b50610772600480360381019061076d9190613e2d565b6119a7565b005b34801561078057600080fd5b5061079b6004803603810190610796919061356c565b611a09565b6040516107a89190613514565b60405180910390f35b3480156107bd57600080fd5b506107d860048036038101906107d39190613621565b611a5d565b6040516107e59190613670565b60405180910390f35b3480156107fa57600080fd5b50610803611a82565b6040516108109190613f6e565b60405180910390f35b34801561082557600080fd5b50610840600480360381019061083b9190613f90565b611b71565b60405161084d9190613460565b60405180910390f35b34801561086257600080fd5b5061087d60048036038101906108789190613b9a565b611c05565b005b61089960048036038101906108949190613fd0565b611cfd565b005b3480156108a757600080fd5b506108b061219e565b6040516108bd9190613670565b60405180910390f35b60006108d1826121a4565b9050919050565b6060600080546108e79061408a565b80601f01602080910402602001604051908101604052809291908181526020018280546109139061408a565b80156109605780601f1061093557610100808354040283529160200191610960565b820191906000526020600020905b81548152906001019060200180831161094357829003601f168201915b5050505050905090565b60006109758261221e565b6109b4576040517f08c379a00000000000000000000000000000000000000000000000000000000081526004016109ab9061412e565b60405180910390fd5b6004600083815260200190815260200160002060009054906101000a900473ffffffffffffffffffffffffffffffffffffffff169050919050565b60006109fa82611531565b90508073ffffffffffffffffffffffffffffffffffffffff168373ffffffffffffffffffffffffffffffffffffffff161415610a6b576040517f08c379a0000000000000000000000000000000000000000000000000000000008152600401610a62906141c0565b60405180910390fd5b8073ffffffffffffffffffffffffffffffffffffffff16610a8a61228a565b73ffffffffffffffffffffffffffffffffffffffff161480610ab95750610ab881610ab361228a565b611b71565b5b610af8576040517f08c379a0000000000000000000000000000000000000000000000000000000008152600401610aef90614252565b60405180910390fd5b610b028383612292565b505050565b6000600880549050905090565b600c5481565b610b2b610b2561228a565b8261234b565b610b6a576040517f08c379a0000000000000000000000000000000000000000000000000000000008152600401610b61906142e4565b60405180910390fd5b610b75838383612429565b505050565b610b8261228a565b73ffffffffffffffffffffffffffffffffffffffff16610ba0611894565b73ffffffffffffffffffffffffffffffffffffffff1614610bf6576040517f08c379a0000000000000000000000000000000000000000000000000000000008152600401610bed90614350565b60405180910390fd5b6000600f87604051610c0891906143ac565b90815260200160405180910390205414610c57576040517f08c379a0000000000000000000000000000000000000000000000000000000008152600401610c4e9061440f565b60405180910390fd5b600c54600f87604051610c6a91906143ac565b9081526020016040518091039020819055506040518060c0016040528087815260200186815260200185815260200184815260200183815260200182815250600e6000600c5481526020019081526020016000206000820151816000019080519060200190610cda929190613309565b506020820151816001019080519060200190610cf7929190613309565b506040820151816002019080519060200190610d14929190613309565b50606082015181600301556080820151816004015560a08201518160050155905050600c6000815480929190610d499061445e565b91905055507f3f5fd1148dbde084a4018de8c073cd8b3b4c5a8f3adc2636d0be5bba0bc0728333600c54600e60006001600c54610d8691906144a7565b8152602001908152602001600020604051610da393929190614669565b60405180910390a1505050505050565b6000610dbe836115fb565b8210610dff576040517f08c379a0000000000000000000000000000000000000000000000000000000008152600401610df690614719565b60405180910390fd5b600660008473ffffffffffffffffffffffffffffffffffffffff1673ffffffffffffffffffffffffffffffffffffffff168152602001908152602001600020600083815260200190815260200160002054905092915050565b600d8054610e659061408a565b80601f0160208091040260200160405190810160405280929190818152602001828054610e919061408a565b8015610ede5780601f10610eb357610100808354040283529160200191610ede565b820191906000526020600020905b815481529060010190602001808311610ec157829003601f168201915b505050505081565b6000805b8351811015610f6957828181518110610f0657610f05614739565b5b6020026020010151600e6000868481518110610f2557610f24614739565b5b6020026020010151815260200190815260200160002060050154610f499190614768565b82610f5491906147c2565b91508080610f619061445e565b915050610eea565b5092915050565b610f8b838383604051806020016040528060008152506119a7565b505050565b610fa1610f9b61228a565b8261234b565b610fe0576040517f08c379a0000000000000000000000000000000000000000000000000000000008152600401610fd79061488a565b60405180910390fd5b610fe981612685565b50565b610ff461228a565b73ffffffffffffffffffffffffffffffffffffffff16611012611894565b73ffffffffffffffffffffffffffffffffffffffff1614611068576040517f08c379a000000000000000000000000000000000000000000000000000000000815260040161105f90614350565b60405180910390fd5b81518351146110ac576040517f08c379a00000000000000000000000000000000000000000000000000000000081526004016110a39061491c565b60405180910390fd5b60005b825181101561118a578281815181106110cb576110ca614739565b5b6020026020010151600e60008684815181106110ea576110e9614739565b5b60200260200101518152602001908152602001600020600401600082825461111291906147c2565b925050819055506305f5e10082828151811061113157611130614739565b5b60200260200101516111439190614768565b600e600086848151811061115a57611159614739565b5b602002602001015181526020019081526020016000206005018190555080806111829061445e565b9150506110af565b3373ffffffffffffffffffffffffffffffffffffffff163073ffffffffffffffffffffffffffffffffffffffff167f5259f2c7b7417016471e72e4bab3c00a505b56cb4a8f3336e61e98a9a957823f60405160405180910390a350505050565b600f818051602081018201805184825260208301602085012081835280955050505050506000915090505481565b6000611222610b07565b8210611263576040517f08c379a000000000000000000000000000000000000000000000000000000000815260040161125a906149ae565b60405180910390fd5b6008828154811061127757611276614739565b5b90600052602060002001549050919050565b606061129361228a565b73ffffffffffffffffffffffffffffffffffffffff166112b1611894565b73ffffffffffffffffffffffffffffffffffffffff1614611307576040517f08c379a00000000000000000000000000000000000000000000000000000000081526004016112fe90614350565b60405180910390fd5b81600d908051906020019061131d929190613309565b507faeb4360f9f54829e7b1a8d6667aa6d755ac3ccab4c3f34d144bb787591131b5433600d604051611350929190614a4e565b60405180910390a1919050565b600e6020528060005260406000206000915090508060000180546113809061408a565b80601f01602080910402602001604051908101604052809291908181526020018280546113ac9061408a565b80156113f95780601f106113ce576101008083540402835291602001916113f9565b820191906000526020600020905b8154815290600101906020018083116113dc57829003601f168201915b50505050509080600101805461140e9061408a565b80601f016020809104026020016040519081016040528092919081815260200182805461143a9061408a565b80156114875780601f1061145c57610100808354040283529160200191611487565b820191906000526020600020905b81548152906001019060200180831161146a57829003601f168201915b50505050509080600201805461149c9061408a565b80601f01602080910402602001604051908101604052809291908181526020018280546114c89061408a565b80156115155780601f106114ea57610100808354040283529160200191611515565b820191906000526020600020905b8154815290600101906020018083116114f857829003601f168201915b5050505050908060030154908060040154908060050154905086565b6000806002600084815260200190815260200160002060009054906101000a900473ffffffffffffffffffffffffffffffffffffffff169050600073ffffffffffffffffffffffffffffffffffffffff168173ffffffffffffffffffffffffffffffffffffffff1614156115da576040517f08c379a00000000000000000000000000000000000000000000000000000000081526004016115d190614af0565b60405180910390fd5b80915050919050565b60106020528060005260406000206000915090505481565b60008073ffffffffffffffffffffffffffffffffffffffff168273ffffffffffffffffffffffffffffffffffffffff16141561166c576040517f08c379a000000000000000000000000000000000000000000000000000000000815260040161166390614b82565b60405180910390fd5b600360008373ffffffffffffffffffffffffffffffffffffffff1673ffffffffffffffffffffffffffffffffffffffff168152602001908152602001600020549050919050565b6116bb61228a565b73ffffffffffffffffffffffffffffffffffffffff166116d9611894565b73ffffffffffffffffffffffffffffffffffffffff161461172f576040517f08c379a000000000000000000000000000000000000000000000000000000000815260040161172690614350565b60405180910390fd5b6117396000612796565b565b61174361228a565b73ffffffffffffffffffffffffffffffffffffffff16611761611894565b73ffffffffffffffffffffffffffffffffffffffff16146117b7576040517f08c379a00000000000000000000000000000000000000000000000000000000081526004016117ae90614350565b60405180910390fd5b60005b8251811015611835578181815181106117d6576117d5614739565b5b6020026020010151600e60008584815181106117f5576117f4614739565b5b602002602001015181526020019081526020016000206002019080519060200190611821929190613309565b50808061182d9061445e565b9150506117ba565b3373ffffffffffffffffffffffffffffffffffffffff163073ffffffffffffffffffffffffffffffffffffffff167f1cdc4e397e417044b31e31e39862f18ff37104633f17e56d0f9466b124fd25ac60405160405180910390a3505050565b6000600a60009054906101000a900473ffffffffffffffffffffffffffffffffffffffff16905090565b6060600180546118cd9061408a565b80601f01602080910402602001604051908101604052809291908181526020018280546118f99061408a565b80156119465780601f1061191b57610100808354040283529160200191611946565b820191906000526020600020905b81548152906001019060200180831161192957829003601f168201915b5050505050905090565b61196261195b61228a565b838361285c565b5050565b6060600d600e6000848152602001908152602001600020600201604051602001611991929190614c21565b6040516020818303038152906040529050919050565b6119b86119b261228a565b8361234b565b6119f7576040517f08c379a00000000000000000000000000000000000000000000000000000000081526004016119ee906142e4565b60405180910390fd5b611a03848484846129c9565b50505050565b6060600d600e600060106000868152602001908152602001600020548152602001908152602001600020600201604051602001611a47929190614c21565b6040516020818303038152906040529050919050565b6011602052816000526040600020602052806000526040600020600091509150505481565b6060600c5467ffffffffffffffff811115611aa057611a9f6136e8565b5b604051908082528060200260200182016040528015611ace5781602001602082028036833780820191505090505b50905060005b600c54811015611b6d57601160003373ffffffffffffffffffffffffffffffffffffffff1673ffffffffffffffffffffffffffffffffffffffff1681526020019081526020016000206000600183611b2c91906147c2565b815260200190815260200160002054828281518110611b4e57611b4d614739565b5b6020026020010181815250508080611b659061445e565b915050611ad4565b5090565b6000600560008473ffffffffffffffffffffffffffffffffffffffff1673ffffffffffffffffffffffffffffffffffffffff16815260200190815260200160002060008373ffffffffffffffffffffffffffffffffffffffff1673ffffffffffffffffffffffffffffffffffffffff16815260200190815260200160002060009054906101000a900460ff16905092915050565b611c0d61228a565b73ffffffffffffffffffffffffffffffffffffffff16611c2b611894565b73ffffffffffffffffffffffffffffffffffffffff1614611c81576040517f08c379a0000000000000000000000000000000000000000000000000000000008152600401611c7890614350565b60405180910390fd5b600073ffffffffffffffffffffffffffffffffffffffff168173ffffffffffffffffffffffffffffffffffffffff161415611cf1576040517f08c379a0000000000000000000000000000000000000000000000000000000008152600401611ce890614cb7565b60405180910390fd5b611cfa81612796565b50565b8051825114611d41576040517f08c379a0000000000000000000000000000000000000000000000000000000008152600401611d389061491c565b60405180910390fd5b60008060008092505b8451831015611dc957838381518110611d6657611d65614739565b5b6020026020010151600e6000878681518110611d8557611d84614739565b5b6020026020010151815260200190815260200160002060050154611da99190614768565b81611db491906147c2565b90508280611dc19061445e565b935050611d4a565b803414611e0b576040517f08c379a0000000000000000000000000000000000000000000000000000000008152600401611e0290614d23565b60405180910390fd5b600092505b83518310156120e157600e6000868581518110611e3057611e2f614739565b5b6020026020010151815260200190815260200160002060040154848481518110611e5d57611e5c614739565b5b6020026020010151600e6000888781518110611e7c57611e7b614739565b5b6020026020010151815260200190815260200160002060030154611ea091906147c2565b1115611ee1576040517f08c379a0000000000000000000000000000000000000000000000000000000008152600401611ed890614d8f565b60405180910390fd5b838381518110611ef457611ef3614739565b5b6020026020010151600e6000878681518110611f1357611f12614739565b5b602002602001015181526020019081526020016000206003016000828254611f3b91906147c2565b92505081905550838381518110611f5557611f54614739565b5b6020026020010151601160008873ffffffffffffffffffffffffffffffffffffffff1673ffffffffffffffffffffffffffffffffffffffff1681526020019081526020016000206000878681518110611fb157611fb0614739565b5b602002602001015181526020019081526020016000206000828254611fd691906147c2565b92505081905550600e6000868581518110611ff457611ff3614739565b5b602002602001015181526020019081526020016000206005015484848151811061202157612020614739565b5b60200260200101516120339190614768565b8161203e91906147c2565b9050600091505b83838151811061205857612057614739565b5b60200260200101518210156120ce5784838151811061207a57612079614739565b5b602002602001015160106000600b548152602001908152602001600020819055506120bb86600b60008154809291906120b29061445e565b91905055612a25565b81806120c69061445e565b925050612045565b82806120d99061445e565b935050611e10565b8573ffffffffffffffffffffffffffffffffffffffff163073ffffffffffffffffffffffffffffffffffffffff167fb7490e05b93b181e9a9c65c68a03450a6568e4b7fce56602f15e528430e302eb8334146040516121409190613460565b60405180910390a3612150611894565b73ffffffffffffffffffffffffffffffffffffffff166108fc349081150290604051600060405180830381858888f19350505050158015612195573d6000803e3d6000fd5b50505050505050565b600b5481565b60007f780e9d63000000000000000000000000000000000000000000000000000000007bffffffffffffffffffffffffffffffffffffffffffffffffffffffff1916827bffffffffffffffffffffffffffffffffffffffffffffffffffffffff19161480612217575061221682612bf3565b5b9050919050565b60008073ffffffffffffffffffffffffffffffffffffffff166002600084815260200190815260200160002060009054906101000a900473ffffffffffffffffffffffffffffffffffffffff1673ffffffffffffffffffffffffffffffffffffffff1614159050919050565b600033905090565b816004600083815260200190815260200160002060006101000a81548173ffffffffffffffffffffffffffffffffffffffff021916908373ffffffffffffffffffffffffffffffffffffffff160217905550808273ffffffffffffffffffffffffffffffffffffffff1661230583611531565b73ffffffffffffffffffffffffffffffffffffffff167f8c5be1e5ebec7d5bd14f71427d1e84f3dd0314c0f7b2291e5b200ac8c7c3b92560405160405180910390a45050565b60006123568261221e565b612395576040517f08c379a000000000000000000000000000000000000000000000000000000000815260040161238c90614e21565b60405180910390fd5b60006123a083611531565b90508073ffffffffffffffffffffffffffffffffffffffff168473ffffffffffffffffffffffffffffffffffffffff16148061240f57508373ffffffffffffffffffffffffffffffffffffffff166123f78461096a565b73ffffffffffffffffffffffffffffffffffffffff16145b80612420575061241f8185611b71565b5b91505092915050565b8273ffffffffffffffffffffffffffffffffffffffff1661244982611531565b73ffffffffffffffffffffffffffffffffffffffff161461249f576040517f08c379a000000000000000000000000000000000000000000000000000000000815260040161249690614eb3565b60405180910390fd5b600073ffffffffffffffffffffffffffffffffffffffff168273ffffffffffffffffffffffffffffffffffffffff16141561250f576040517f08c379a000000000000000000000000000000000000000000000000000000000815260040161250690614f45565b60405180910390fd5b61251a838383612cd5565b612525600082612292565b6001600360008573ffffffffffffffffffffffffffffffffffffffff1673ffffffffffffffffffffffffffffffffffffffff168152602001908152602001600020600082825461257591906144a7565b925050819055506001600360008473ffffffffffffffffffffffffffffffffffffffff1673ffffffffffffffffffffffffffffffffffffffff16815260200190815260200160002060008282546125cc91906147c2565b92505081905550816002600083815260200190815260200160002060006101000a81548173ffffffffffffffffffffffffffffffffffffffff021916908373ffffffffffffffffffffffffffffffffffffffff160217905550808273ffffffffffffffffffffffffffffffffffffffff168473ffffffffffffffffffffffffffffffffffffffff167fddf252ad1be2c89b69c2b068fc378daa952ba7f163c4a11628f55a4df523b3ef60405160405180910390a4505050565b600061269082611531565b905061269e81600084612cd5565b6126a9600083612292565b6001600360008373ffffffffffffffffffffffffffffffffffffffff1673ffffffffffffffffffffffffffffffffffffffff16815260200190815260200160002060008282546126f991906144a7565b925050819055506002600083815260200190815260200160002060006101000a81549073ffffffffffffffffffffffffffffffffffffffff021916905581600073ffffffffffffffffffffffffffffffffffffffff168273ffffffffffffffffffffffffffffffffffffffff167fddf252ad1be2c89b69c2b068fc378daa952ba7f163c4a11628f55a4df523b3ef60405160405180910390a45050565b6000600a60009054906101000a900473ffffffffffffffffffffffffffffffffffffffff16905081600a60006101000a81548173ffffffffffffffffffffffffffffffffffffffff021916908373ffffffffffffffffffffffffffffffffffffffff1602179055508173ffffffffffffffffffffffffffffffffffffffff168173ffffffffffffffffffffffffffffffffffffffff167f8be0079c531659141344cd1fd0a4f28419497f9722a3daafe3b4186f6b6457e060405160405180910390a35050565b8173ffffffffffffffffffffffffffffffffffffffff168373ffffffffffffffffffffffffffffffffffffffff1614156128cb576040517f08c379a00000000000000000000000000000000000000000000000000000000081526004016128c290614fb1565b60405180910390fd5b80600560008573ffffffffffffffffffffffffffffffffffffffff1673ffffffffffffffffffffffffffffffffffffffff16815260200190815260200160002060008473ffffffffffffffffffffffffffffffffffffffff1673ffffffffffffffffffffffffffffffffffffffff16815260200190815260200160002060006101000a81548160ff0219169083151502179055508173ffffffffffffffffffffffffffffffffffffffff168373ffffffffffffffffffffffffffffffffffffffff167f17307eab39ab6107e8899845ad3d59bd9653f200f220920489ca2b5937696c31836040516129bc9190613460565b60405180910390a3505050565b6129d4848484612429565b6129e084848484612ce5565b612a1f576040517f08c379a0000000000000000000000000000000000000000000000000000000008152600401612a1690615043565b60405180910390fd5b50505050565b600073ffffffffffffffffffffffffffffffffffffffff168273ffffffffffffffffffffffffffffffffffffffff161415612a95576040517f08c379a0000000000000000000000000000000000000000000000000000000008152600401612a8c906150af565b60405180910390fd5b612a9e8161221e565b15612ade576040517f08c379a0000000000000000000000000000000000000000000000000000000008152600401612ad59061511b565b60405180910390fd5b612aea60008383612cd5565b6001600360008473ffffffffffffffffffffffffffffffffffffffff1673ffffffffffffffffffffffffffffffffffffffff1681526020019081526020016000206000828254612b3a91906147c2565b92505081905550816002600083815260200190815260200160002060006101000a81548173ffffffffffffffffffffffffffffffffffffffff021916908373ffffffffffffffffffffffffffffffffffffffff160217905550808273ffffffffffffffffffffffffffffffffffffffff16600073ffffffffffffffffffffffffffffffffffffffff167fddf252ad1be2c89b69c2b068fc378daa952ba7f163c4a11628f55a4df523b3ef60405160405180910390a45050565b60007f80ac58cd000000000000000000000000000000000000000000000000000000007bffffffffffffffffffffffffffffffffffffffffffffffffffffffff1916827bffffffffffffffffffffffffffffffffffffffffffffffffffffffff19161480612cbe57507f5b5e139f000000000000000000000000000000000000000000000000000000007bffffffffffffffffffffffffffffffffffffffffffffffffffffffff1916827bffffffffffffffffffffffffffffffffffffffffffffffffffffffff1916145b80612cce5750612ccd82612e6d565b5b9050919050565b612ce0838383612ed7565b505050565b6000612d068473ffffffffffffffffffffffffffffffffffffffff16612feb565b15612e60578373ffffffffffffffffffffffffffffffffffffffff1663150b7a02612d2f61228a565b8786866040518563ffffffff1660e01b8152600401612d519493929190615190565b6020604051808303816000875af1925050508015612d8d57506040513d601f19601f82011682018060405250810190612d8a91906151f1565b60015b612e10573d8060008114612dbd576040519150601f19603f3d011682016040523d82523d6000602084013e612dc2565b606091505b50600081511415612e08576040517f08c379a0000000000000000000000000000000000000000000000000000000008152600401612dff90615043565b60405180910390fd5b805181602001fd5b63150b7a0260e01b7bffffffffffffffffffffffffffffffffffffffffffffffffffffffff1916817bffffffffffffffffffffffffffffffffffffffffffffffffffffffff191614915050612e65565b600190505b949350505050565b60007f01ffc9a7000000000000000000000000000000000000000000000000000000007bffffffffffffffffffffffffffffffffffffffffffffffffffffffff1916827bffffffffffffffffffffffffffffffffffffffffffffffffffffffff1916149050919050565b612ee2838383612ffe565b600073ffffffffffffffffffffffffffffffffffffffff168373ffffffffffffffffffffffffffffffffffffffff161415612f2557612f2081613003565b612f64565b8173ffffffffffffffffffffffffffffffffffffffff168373ffffffffffffffffffffffffffffffffffffffff1614612f6357612f62838261304c565b5b5b600073ffffffffffffffffffffffffffffffffffffffff168273ffffffffffffffffffffffffffffffffffffffff161415612fa757612fa2816131b9565b612fe6565b8273ffffffffffffffffffffffffffffffffffffffff168273ffffffffffffffffffffffffffffffffffffffff1614612fe557612fe4828261328a565b5b5b505050565b600080823b905060008111915050919050565b505050565b6008805490506009600083815260200190815260200160002081905550600881908060018154018082558091505060019003906000526020600020016000909190919091505550565b60006001613059846115fb565b61306391906144a7565b9050600060076000848152602001908152602001600020549050818114613148576000600660008673ffffffffffffffffffffffffffffffffffffffff1673ffffffffffffffffffffffffffffffffffffffff168152602001908152602001600020600084815260200190815260200160002054905080600660008773ffffffffffffffffffffffffffffffffffffffff1673ffffffffffffffffffffffffffffffffffffffff168152602001908152602001600020600084815260200190815260200160002081905550816007600083815260200190815260200160002081905550505b6007600084815260200190815260200160002060009055600660008573ffffffffffffffffffffffffffffffffffffffff1673ffffffffffffffffffffffffffffffffffffffff16815260200190815260200160002060008381526020019081526020016000206000905550505050565b600060016008805490506131cd91906144a7565b90506000600960008481526020019081526020016000205490506000600883815481106131fd576131fc614739565b5b90600052602060002001549050806008838154811061321f5761321e614739565b5b90600052602060002001819055508160096000838152602001908152602001600020819055506009600085815260200190815260200160002060009055600880548061326e5761326d61521e565b5b6001900381819060005260206000200160009055905550505050565b6000613295836115fb565b905081600660008573ffffffffffffffffffffffffffffffffffffffff1673ffffffffffffffffffffffffffffffffffffffff168152602001908152602001600020600083815260200190815260200160002081905550806007600084815260200190815260200160002081905550505050565b8280546133159061408a565b90600052602060002090601f016020900481019282613337576000855561337e565b82601f1061335057805160ff191683800117855561337e565b8280016001018555821561337e579182015b8281111561337d578251825591602001919060010190613362565b5b50905061338b919061338f565b5090565b5b808211156133a8576000816000905550600101613390565b5090565b6000604051905090565b600080fd5b600080fd5b60007fffffffff0000000000000000000000000000000000000000000000000000000082169050919050565b6133f5816133c0565b811461340057600080fd5b50565b600081359050613412816133ec565b92915050565b60006020828403121561342e5761342d6133b6565b5b600061343c84828501613403565b91505092915050565b60008115159050919050565b61345a81613445565b82525050565b60006020820190506134756000830184613451565b92915050565b600081519050919050565b600082825260208201905092915050565b60005b838110156134b557808201518184015260208101905061349a565b838111156134c4576000848401525b50505050565b6000601f19601f8301169050919050565b60006134e68261347b565b6134f08185613486565b9350613500818560208601613497565b613509816134ca565b840191505092915050565b6000602082019050818103600083015261352e81846134db565b905092915050565b6000819050919050565b61354981613536565b811461355457600080fd5b50565b60008135905061356681613540565b92915050565b600060208284031215613582576135816133b6565b5b600061359084828501613557565b91505092915050565b600073ffffffffffffffffffffffffffffffffffffffff82169050919050565b60006135c482613599565b9050919050565b6135d4816135b9565b82525050565b60006020820190506135ef60008301846135cb565b92915050565b6135fe816135b9565b811461360957600080fd5b50565b60008135905061361b816135f5565b92915050565b60008060408385031215613638576136376133b6565b5b60006136468582860161360c565b925050602061365785828601613557565b9150509250929050565b61366a81613536565b82525050565b60006020820190506136856000830184613661565b92915050565b6000806000606084860312156136a4576136a36133b6565b5b60006136b28682870161360c565b93505060206136c38682870161360c565b92505060406136d486828701613557565b9150509250925092565b600080fd5b600080fd5b7f4e487b7100000000000000000000000000000000000000000000000000000000600052604160045260246000fd5b613720826134ca565b810181811067ffffffffffffffff8211171561373f5761373e6136e8565b5b80604052505050565b60006137526133ac565b905061375e8282613717565b919050565b600067ffffffffffffffff82111561377e5761377d6136e8565b5b613787826134ca565b9050602081019050919050565b82818337600083830152505050565b60006137b66137b184613763565b613748565b9050828152602081018484840111156137d2576137d16136e3565b5b6137dd848285613794565b509392505050565b600082601f8301126137fa576137f96136de565b5b813561380a8482602086016137a3565b91505092915050565b60008060008060008060c087890312156138305761382f6133b6565b5b600087013567ffffffffffffffff81111561384e5761384d6133bb565b5b61385a89828a016137e5565b965050602087013567ffffffffffffffff81111561387b5761387a6133bb565b5b61388789828a016137e5565b955050604087013567ffffffffffffffff8111156138a8576138a76133bb565b5b6138b489828a016137e5565b94505060606138c589828a01613557565b93505060806138d689828a01613557565b92505060a06138e789828a01613557565b9150509295509295509295565b600067ffffffffffffffff82111561390f5761390e6136e8565b5b602082029050602081019050919050565b600080fd5b6000613938613933846138f4565b613748565b9050808382526020820190506020840283018581111561395b5761395a613920565b5b835b8181101561398457806139708882613557565b84526020840193505060208101905061395d565b5050509392505050565b600082601f8301126139a3576139a26136de565b5b81356139b3848260208601613925565b91505092915050565b600080604083850312156139d3576139d26133b6565b5b600083013567ffffffffffffffff8111156139f1576139f06133bb565b5b6139fd8582860161398e565b925050602083013567ffffffffffffffff811115613a1e57613a1d6133bb565b5b613a2a8582860161398e565b9150509250929050565b600080600060608486031215613a4d57613a4c6133b6565b5b600084013567ffffffffffffffff811115613a6b57613a6a6133bb565b5b613a778682870161398e565b935050602084013567ffffffffffffffff811115613a9857613a976133bb565b5b613aa48682870161398e565b925050604084013567ffffffffffffffff811115613ac557613ac46133bb565b5b613ad18682870161398e565b9150509250925092565b600060208284031215613af157613af06133b6565b5b600082013567ffffffffffffffff811115613b0f57613b0e6133bb565b5b613b1b848285016137e5565b91505092915050565b600060c0820190508181036000830152613b3e81896134db565b90508181036020830152613b5281886134db565b90508181036040830152613b6681876134db565b9050613b756060830186613661565b613b826080830185613661565b613b8f60a0830184613661565b979650505050505050565b600060208284031215613bb057613baf6133b6565b5b6000613bbe8482850161360c565b91505092915050565b600067ffffffffffffffff821115613be257613be16136e8565b5b602082029050602081019050919050565b6000613c06613c0184613bc7565b613748565b90508083825260208201905060208402830185811115613c2957613c28613920565b5b835b81811015613c7057803567ffffffffffffffff811115613c4e57613c4d6136de565b5b808601613c5b89826137e5565b85526020850194505050602081019050613c2b565b5050509392505050565b600082601f830112613c8f57613c8e6136de565b5b8135613c9f848260208601613bf3565b91505092915050565b60008060408385031215613cbf57613cbe6133b6565b5b600083013567ffffffffffffffff811115613cdd57613cdc6133bb565b5b613ce98582860161398e565b925050602083013567ffffffffffffffff811115613d0a57613d096133bb565b5b613d1685828601613c7a565b9150509250929050565b613d2981613445565b8114613d3457600080fd5b50565b600081359050613d4681613d20565b92915050565b60008060408385031215613d6357613d626133b6565b5b6000613d718582860161360c565b9250506020613d8285828601613d37565b9150509250929050565b600067ffffffffffffffff821115613da757613da66136e8565b5b613db0826134ca565b9050602081019050919050565b6000613dd0613dcb84613d8c565b613748565b905082815260208101848484011115613dec57613deb6136e3565b5b613df7848285613794565b509392505050565b600082601f830112613e1457613e136136de565b5b8135613e24848260208601613dbd565b91505092915050565b60008060008060808587031215613e4757613e466133b6565b5b6000613e558782880161360c565b9450506020613e668782880161360c565b9350506040613e7787828801613557565b925050606085013567ffffffffffffffff811115613e9857613e976133bb565b5b613ea487828801613dff565b91505092959194509250565b600081519050919050565b600082825260208201905092915050565b6000819050602082019050919050565b613ee581613536565b82525050565b6000613ef78383613edc565b60208301905092915050565b6000602082019050919050565b6000613f1b82613eb0565b613f258185613ebb565b9350613f3083613ecc565b8060005b83811015613f61578151613f488882613eeb565b9750613f5383613f03565b925050600181019050613f34565b5085935050505092915050565b60006020820190508181036000830152613f888184613f10565b905092915050565b60008060408385031215613fa757613fa66133b6565b5b6000613fb58582860161360c565b9250506020613fc68582860161360c565b9150509250929050565b600080600060608486031215613fe957613fe86133b6565b5b6000613ff78682870161360c565b935050602084013567ffffffffffffffff811115614018576140176133bb565b5b6140248682870161398e565b925050604084013567ffffffffffffffff811115614045576140446133bb565b5b6140518682870161398e565b9150509250925092565b7f4e487b7100000000000000000000000000000000000000000000000000000000600052602260045260246000fd5b600060028204905060018216806140a257607f821691505b602082108114156140b6576140b561405b565b5b50919050565b7f4552433732313a20617070726f76656420717565727920666f72206e6f6e657860008201527f697374656e7420746f6b656e0000000000000000000000000000000000000000602082015250565b6000614118602c83613486565b9150614123826140bc565b604082019050919050565b600060208201905081810360008301526141478161410b565b9050919050565b7f4552433732313a20617070726f76616c20746f2063757272656e74206f776e6560008201527f7200000000000000000000000000000000000000000000000000000000000000602082015250565b60006141aa602183613486565b91506141b58261414e565b604082019050919050565b600060208201905081810360008301526141d98161419d565b9050919050565b7f4552433732313a20617070726f76652063616c6c6572206973206e6f74206f7760008201527f6e6572206e6f7220617070726f76656420666f7220616c6c0000000000000000602082015250565b600061423c603883613486565b9150614247826141e0565b604082019050919050565b6000602082019050818103600083015261426b8161422f565b9050919050565b7f4552433732313a207472616e736665722063616c6c6572206973206e6f74206f60008201527f776e6572206e6f7220617070726f766564000000000000000000000000000000602082015250565b60006142ce603183613486565b91506142d982614272565b604082019050919050565b600060208201905081810360008301526142fd816142c1565b9050919050565b7f4f776e61626c653a2063616c6c6572206973206e6f7420746865206f776e6572600082015250565b600061433a602083613486565b915061434582614304565b602082019050919050565b600060208201905081810360008301526143698161432d565b9050919050565b600081905092915050565b60006143868261347b565b6143908185614370565b93506143a0818560208601613497565b80840191505092915050565b60006143b8828461437b565b915081905092915050565b7f416c726561647920657869737473210000000000000000000000000000000000600082015250565b60006143f9600f83613486565b9150614404826143c3565b602082019050919050565b60006020820190508181036000830152614428816143ec565b9050919050565b7f4e487b7100000000000000000000000000000000000000000000000000000000600052601160045260246000fd5b600061446982613536565b91507fffffffffffffffffffffffffffffffffffffffffffffffffffffffffffffffff82141561449c5761449b61442f565b5b600182019050919050565b60006144b282613536565b91506144bd83613536565b9250828210156144d0576144cf61442f565b5b828203905092915050565b600082825260208201905092915050565b60008190508160005260206000209050919050565b6000815461450e8161408a565b61451881866144db565b94506001821660008114614533576001811461454557614578565b60ff1983168652602086019350614578565b61454e856144ec565b60005b8381101561457057815481890152600182019150602081019050614551565b808801955050505b50505092915050565b60008160001c9050919050565b6000819050919050565b60006145ab6145a683614581565b61458e565b9050919050565b600060c08301600080840185830360008701526145cf8382614501565b9250506001840185830360208701526145e88382614501565b9250506002840185830360408701526146018382614501565b9250506003840154905061461481614598565b6146216060870182613edc565b506004840154905061463281614598565b61463f6080870182613edc565b506005840154905061465081614598565b61465d60a0870182613edc565b50819250505092915050565b600060608201905061467e60008301866135cb565b61468b6020830185613661565b818103604083015261469d81846145b2565b9050949350505050565b7f455243373231456e756d657261626c653a206f776e657220696e646578206f7560008201527f74206f6620626f756e6473000000000000000000000000000000000000000000602082015250565b6000614703602b83613486565b915061470e826146a7565b604082019050919050565b60006020820190508181036000830152614732816146f6565b9050919050565b7f4e487b7100000000000000000000000000000000000000000000000000000000600052603260045260246000fd5b600061477382613536565b915061477e83613536565b9250817fffffffffffffffffffffffffffffffffffffffffffffffffffffffffffffffff04831182151516156147b7576147b661442f565b5b828202905092915050565b60006147cd82613536565b91506147d883613536565b9250827fffffffffffffffffffffffffffffffffffffffffffffffffffffffffffffffff0382111561480d5761480c61442f565b5b828201905092915050565b7f4552433732314275726e61626c653a2063616c6c6572206973206e6f74206f7760008201527f6e6572206e6f7220617070726f76656400000000000000000000000000000000602082015250565b6000614874603083613486565b915061487f82614818565b604082019050919050565b600060208201905081810360008301526148a381614867565b9050919050565b7f544f4b454e2049445320616e6420414d4f554e5453206c656e677468206d757360008201527f74204d4154434821212100000000000000000000000000000000000000000000602082015250565b6000614906602a83613486565b9150614911826148aa565b604082019050919050565b60006020820190508181036000830152614935816148f9565b9050919050565b7f455243373231456e756d657261626c653a20676c6f62616c20696e646578206f60008201527f7574206f6620626f756e64730000000000000000000000000000000000000000602082015250565b6000614998602c83613486565b91506149a38261493c565b604082019050919050565b600060208201905081810360008301526149c78161498b565b9050919050565b600081546149db8161408a565b6149e58186613486565b94506001821660008114614a005760018114614a1257614a45565b60ff1983168652602086019350614a45565b614a1b856144ec565b60005b83811015614a3d57815481890152600182019150602081019050614a1e565b808801955050505b50505092915050565b6000604082019050614a6360008301856135cb565b8181036020830152614a7581846149ce565b90509392505050565b7f4552433732313a206f776e657220717565727920666f72206e6f6e657869737460008201527f656e7420746f6b656e0000000000000000000000000000000000000000000000602082015250565b6000614ada602983613486565b9150614ae582614a7e565b604082019050919050565b60006020820190508181036000830152614b0981614acd565b9050919050565b7f4552433732313a2062616c616e636520717565727920666f7220746865207a6560008201527f726f206164647265737300000000000000000000000000000000000000000000602082015250565b6000614b6c602a83613486565b9150614b7782614b10565b604082019050919050565b60006020820190508181036000830152614b9b81614b5f565b9050919050565b60008154614baf8161408a565b614bb98186614370565b94506001821660008114614bd45760018114614be557614c18565b60ff19831686528186019350614c18565b614bee856144ec565b60005b83811015614c1057815481890152600182019150602081019050614bf1565b838801955050505b50505092915050565b6000614c2d8285614ba2565b9150614c398284614ba2565b91508190509392505050565b7f4f776e61626c653a206e6577206f776e657220697320746865207a65726f206160008201527f6464726573730000000000000000000000000000000000000000000000000000602082015250565b6000614ca1602683613486565b9150614cac82614c45565b604082019050919050565b60006020820190508181036000830152614cd081614c94565b9050919050565b7f5072696365204469736d61746368656421000000000000000000000000000000600082015250565b6000614d0d601183613486565b9150614d1882614cd7565b602082019050919050565b60006020820190508181036000830152614d3c81614d00565b9050919050565b7f4d4158204c494d49542045584345454400000000000000000000000000000000600082015250565b6000614d79601083613486565b9150614d8482614d43565b602082019050919050565b60006020820190508181036000830152614da881614d6c565b9050919050565b7f4552433732313a206f70657261746f7220717565727920666f72206e6f6e657860008201527f697374656e7420746f6b656e0000000000000000000000000000000000000000602082015250565b6000614e0b602c83613486565b9150614e1682614daf565b604082019050919050565b60006020820190508181036000830152614e3a81614dfe565b9050919050565b7f4552433732313a207472616e73666572206f6620746f6b656e2074686174206960008201527f73206e6f74206f776e0000000000000000000000000000000000000000000000602082015250565b6000614e9d602983613486565b9150614ea882614e41565b604082019050919050565b60006020820190508181036000830152614ecc81614e90565b9050919050565b7f4552433732313a207472616e7366657220746f20746865207a65726f2061646460008201527f7265737300000000000000000000000000000000000000000000000000000000602082015250565b6000614f2f602483613486565b9150614f3a82614ed3565b604082019050919050565b60006020820190508181036000830152614f5e81614f22565b9050919050565b7f4552433732313a20617070726f766520746f2063616c6c657200000000000000600082015250565b6000614f9b601983613486565b9150614fa682614f65565b602082019050919050565b60006020820190508181036000830152614fca81614f8e565b9050919050565b7f4552433732313a207472616e7366657220746f206e6f6e20455243373231526560008201527f63656976657220696d706c656d656e7465720000000000000000000000000000602082015250565b600061502d603283613486565b915061503882614fd1565b604082019050919050565b6000602082019050818103600083015261505c81615020565b9050919050565b7f4552433732313a206d696e7420746f20746865207a65726f2061646472657373600082015250565b6000615099602083613486565b91506150a482615063565b602082019050919050565b600060208201905081810360008301526150c88161508c565b9050919050565b7f4552433732313a20746f6b656e20616c7265616479206d696e74656400000000600082015250565b6000615105601c83613486565b9150615110826150cf565b602082019050919050565b60006020820190508181036000830152615134816150f8565b9050919050565b600081519050919050565b600082825260208201905092915050565b60006151628261513b565b61516c8185615146565b935061517c818560208601613497565b615185816134ca565b840191505092915050565b60006080820190506151a560008301876135cb565b6151b260208301866135cb565b6151bf6040830185613661565b81810360608301526151d18184615157565b905095945050505050565b6000815190506151eb816133ec565b92915050565b600060208284031215615207576152066133b6565b5b6000615215848285016151dc565b91505092915050565b7f4e487b7100000000000000000000000000000000000000000000000000000000600052603160045260246000fdfea264697066735822122030c536c7741979b463197c6a7ae3dab8b5170692b2be3d1108e4114968e2385964736f6c634300080a0033516d65646a62434d7542344138514c3242584c5a4d5257363739734759537958415a686848695877374b7066774e516d567a68346d634a787074656f78776e766b3632684e4670705a72706467727758774151673355463739436262516d51566a5137356d4376523772373172474a43353253596b4139574470555a514858774c4658644e356f5a474d516d55563143336d4b463543434766525334674a474e38484232534b31506143734745716a515163594a38537a6b68747470733a2f2f6661726d656e657267792e6d7970696e6174612e636c6f75642f697066732f",
  "immutableReferences": {},
  "source": "// SPDX-License-Identifier: MIT\r\npragma solidity ^0.8;\r\n\r\nimport \"@openzeppelin/contracts/access/Ownable.sol\";\r\nimport \"@openzeppelin/contracts/token/ERC721/extensions/ERC721Burnable.sol\";\r\nimport \"@openzeppelin/contracts/token/ERC721/extensions/ERC721Enumerable.sol\";\r\nimport \"./ICowNFT.sol\";\r\n\r\ncontract CowNFT is ERC721Burnable, ICowNFT, ERC721Enumerable, Ownable {\r\n\r\n    uint256 public TOKEN_COUNT = 1;\r\n    uint256 public TYPE_COUNT = 1;\r\n    string public base_url;\r\n\r\n    struct CowType {\r\n        string name;\r\n        string description;\r\n        string meta_hash;\r\n        uint256 total_supply;\r\n        uint256 max_supply;\r\n        uint256 price;      // (wei)\r\n    }\r\n    mapping (uint256 => CowType) public cow_types;\r\n    mapping (string => uint256) public type_names;\r\n    mapping (uint256 => uint256) public token_types;\r\n    mapping (address => mapping(uint256 => uint256)) public balance_of_type;\r\n\r\n    event EventSetBaseURL(address sender, string baseURL);\r\n\r\n    constructor (\r\n        // address creator\r\n    ) ERC721(\"CowToken\", \"CT\") {\r\n        base_url = \"https://farmenergy.mypinata.cloud/ipfs/\";\r\n        transferOwnership(msg.sender);\r\n        addType(\"Guerynsy Cow\", \"Guerynsy Cow\", \"QmVzh4mcJxpteoxwnvk62hNFppZrpdgrwXwAQg3UF79Cbb\", 0, 1000, 0.01 * 1e18);\r\n        addType(\"Jersey Cow\", \"Jersey Cow\", \"QmQVjQ75mCvR7r71rGJC52SYkA9WDpUZQHXwLFXdN5oZGM\", 0, 1000, 0.01 * 1e18);\r\n        addType(\"BrownSwiss Cow\", \"BrownSwiss Cow\", \"QmUV1C3mKF5CCGfRS4gJGN8HB2SK1PaCsGEqjQQcYJ8Szk\", 0, 500, 0.02 * 1e18);\r\n        addType(\"Holstein Cow\", \"Holstein Cow\", \"QmedjbCMuB4A8QL2BXLZMRW679sGYSyXAZhhHiXw7KpfwN\", 0, 500, 0.03 * 1e18);\r\n    }\r\n\r\n    // ERC721Enumerable\r\n    function _beforeTokenTransfer(address from, address to, uint256 tokenId) internal override(ERC721, ERC721Enumerable) {\r\n        super._beforeTokenTransfer(from, to, tokenId);\r\n    }\r\n\r\n    function supportsInterface(bytes4 interfaceId) public view override(ERC721, ERC721Enumerable) returns (bool) {\r\n        return super.supportsInterface(interfaceId);\r\n    }\r\n\r\n    function tokenURI(uint256 token_id)\r\n        public override view returns (string memory)\r\n    {\r\n        return string(\r\n            abi.encodePacked(\r\n                base_url,\r\n                cow_types[token_types[token_id]].meta_hash\r\n            )\r\n        );\r\n    }\r\n    // ERC721Enumerable\r\n\r\n    function setBaseURI(string memory url) public onlyOwner returns (string memory) {\r\n        base_url = url;\r\n        emit EventSetBaseURL(msg.sender, base_url);\r\n    }\r\n\r\n    function typeURI(uint256 type_id)\r\n        public view returns (string memory)\r\n    {\r\n        return string(\r\n            abi.encodePacked(\r\n                base_url,\r\n                cow_types[type_id].meta_hash\r\n            )\r\n        );\r\n    }\r\n\r\n    event EventType(address sender, uint256 TYPE_COUNT, CowType cow_type);\r\n    function addType(string memory type_name, string memory description, string memory meta_hash, uint256 total_supply, uint256 max_supply, uint256 price) public onlyOwner {\r\n        require(type_names[type_name] == 0, \"Already exists!\");\r\n        type_names[type_name] = TYPE_COUNT;\r\n        cow_types[TYPE_COUNT] = CowType(\r\n            type_name, description, meta_hash, total_supply, max_supply, price\r\n        );\r\n        TYPE_COUNT ++;\r\n        emit EventType(msg.sender, TYPE_COUNT, cow_types[TYPE_COUNT - 1]);\r\n    }\r\n\r\n    // function setType(uint256 type_id, string memory type_name, string memory description, string memory meta_hash, uint256 total_supply, uint256 max_supply, uint256 price) public onlyOwner {\r\n    //     require (type_id > 0 && type_id < TYPE_COUNT, \"INVALIDE TYPE ID\");\r\n    //     cow_types[type_id] = CowType(\r\n    //         type_name, description, meta_hash, total_supply, max_supply, price\r\n    //     );\r\n    //     emit EventType(msg.sender, TYPE_COUNT, cow_types[type_id]);\r\n    // }\r\n\r\n    function updateMetaHashes(uint256[] memory type_ids, string[] memory _meta_hashes) public onlyOwner {\r\n        uint256 i;\r\n        for (i = 0; i < type_ids.length; i ++) {\r\n            cow_types[type_ids[i]].meta_hash = _meta_hashes[i];\r\n        }\r\n        emit MetaHashesUpdated(address(this), msg.sender);\r\n    }\r\n\r\n    event EventMaxSupplysAndPrices(address indexed contractAddress, address indexed sender);\r\n    function updateMaxSupplysAndPrices(uint256[] memory type_ids, uint256[] memory amounts, uint256[] memory prices) public onlyOwner {\r\n        require (type_ids.length == amounts.length, \"TOKEN IDS and AMOUNTS length must MATCH!!!\");\r\n        uint256 i;\r\n        for (i = 0; i < amounts.length; i ++) {\r\n            cow_types[type_ids[i]].max_supply += amounts[i];\r\n            cow_types[type_ids[i]].price = prices[i] * 1e8; // price is 1e10 so to make 1e18 we have to multiple 1e8\r\n        }\r\n        emit EventMaxSupplysAndPrices(address(this), msg.sender);\r\n    }\r\n\r\n    function getPrice(uint256[] memory type_ids, uint256[] memory amounts) public view returns (uint256 price) {\r\n        price = 0;\r\n        uint256 i;\r\n        for (i = 0; i < type_ids.length; i ++) {\r\n            price += cow_types[type_ids[i]].price * amounts[i];\r\n        }\r\n        return price;\r\n    }\r\n\r\n    function createTokens(address sender, uint256[] memory type_ids, uint256[] memory amounts)\r\n        public payable {\r\n        require(type_ids.length == amounts.length, \"TOKEN IDS and AMOUNTS length must MATCH!!!\");\r\n        uint256 i;\r\n        uint256 j;\r\n        uint256 price = 0;\r\n        for (i = 0; i < type_ids.length; i ++) {\r\n            price += cow_types[type_ids[i]].price * amounts[i];\r\n        }\r\n        require (msg.value == price, \"Price Dismatched!\");\r\n        \r\n        for (i = 0; i < amounts.length; i ++) {\r\n            require(cow_types[type_ids[i]].total_supply + amounts[i] <= cow_types[type_ids[i]].max_supply, \"MAX LIMIT EXCEED\");\r\n            cow_types[type_ids[i]].total_supply += amounts[i];\r\n            balance_of_type[sender][type_ids[i]] += amounts[i];\r\n            price += amounts[i] * cow_types[type_ids[i]].price;\r\n            for (j = 0; j < amounts[i]; j ++) {\r\n                token_types[TOKEN_COUNT] = type_ids[i];\r\n                _mint(sender, TOKEN_COUNT ++);\r\n            }\r\n        }\r\n        emit TokensCreated(address(this), sender, msg.value == price);\r\n        payable(owner()).transfer(msg.value);\r\n        // Emit Event\r\n    }\r\n\r\n    function typesStatus() public view returns (\r\n        // CowType[] memory _cow_types,\r\n        uint256[] memory mines)\r\n    {\r\n        // _cow_types = new CowType[](TYPE_COUNT);\r\n        mines = new uint256[](TYPE_COUNT);\r\n        uint256 i;\r\n        for (i = 0; i < TYPE_COUNT; i ++) {\r\n            // _cow_types[i] = cow_types[i];\r\n            mines[i]= balance_of_type[msg.sender][i + 1];\r\n        }\r\n        return /* (_cow_types,  */mines/* ) */;\r\n    }\r\n\r\n}",
  "sourcePath": "E:\\2.Dev\\Clients\\Indonesia -- Willy(NFT)\\FarmEnergy\\Presale\\src\\contracts\\Token\\CowNFT.sol",
  "compiler": {
    "name": "solc",
    "version": "0.8.10+commit.fc410830.Emscripten.clang"
  },
  "schemaVersion": "3.4.3",
  "updatedAt": "2021-12-28T06:13:32.878Z",
  "networkType": "ethereum",
  "devdoc": {
    "kind": "dev",
    "methods": {
      "approve(address,uint256)": {
        "details": "See {IERC721-approve}."
      },
      "balanceOf(address)": {
        "details": "See {IERC721-balanceOf}."
      },
      "burn(uint256)": {
        "details": "Burns `tokenId`. See {ERC721-_burn}. Requirements: - The caller must own `tokenId` or be an approved operator."
      },
      "getApproved(uint256)": {
        "details": "See {IERC721-getApproved}."
      },
      "isApprovedForAll(address,address)": {
        "details": "See {IERC721-isApprovedForAll}."
      },
      "name()": {
        "details": "See {IERC721Metadata-name}."
      },
      "owner()": {
        "details": "Returns the address of the current owner."
      },
      "ownerOf(uint256)": {
        "details": "See {IERC721-ownerOf}."
      },
      "renounceOwnership()": {
        "details": "Leaves the contract without owner. It will not be possible to call `onlyOwner` functions anymore. Can only be called by the current owner. NOTE: Renouncing ownership will leave the contract without an owner, thereby removing any functionality that is only available to the owner."
      },
      "safeTransferFrom(address,address,uint256)": {
        "details": "See {IERC721-safeTransferFrom}."
      },
      "safeTransferFrom(address,address,uint256,bytes)": {
        "details": "See {IERC721-safeTransferFrom}."
      },
      "setApprovalForAll(address,bool)": {
        "details": "See {IERC721-setApprovalForAll}."
      },
      "symbol()": {
        "details": "See {IERC721Metadata-symbol}."
      },
      "tokenByIndex(uint256)": {
        "details": "See {IERC721Enumerable-tokenByIndex}."
      },
      "tokenOfOwnerByIndex(address,uint256)": {
        "details": "See {IERC721Enumerable-tokenOfOwnerByIndex}."
      },
      "totalSupply()": {
        "details": "See {IERC721Enumerable-totalSupply}."
      },
      "transferFrom(address,address,uint256)": {
        "details": "See {IERC721-transferFrom}."
      },
      "transferOwnership(address)": {
        "details": "Transfers ownership of the contract to a new account (`newOwner`). Can only be called by the current owner."
      }
    },
    "version": 1
  },
  "userdoc": {
    "kind": "user",
    "methods": {},
    "version": 1
  }
}