{
  "contractName": "FarmNFT",
  "abi": [
    {
      "inputs": [],
      "stateMutability": "nonpayable",
      "type": "constructor"
    },
    {
      "anonymous": false,
      "inputs": [
        {
          "indexed": true,
          "internalType": "address",
          "name": "owner",
          "type": "address"
        },
        {
          "indexed": true,
          "internalType": "address",
          "name": "approved",
          "type": "address"
        },
        {
          "indexed": true,
          "internalType": "uint256",
          "name": "tokenId",
          "type": "uint256"
        }
      ],
      "name": "Approval",
      "type": "event"
    },
    {
      "anonymous": false,
      "inputs": [
        {
          "indexed": true,
          "internalType": "address",
          "name": "owner",
          "type": "address"
        },
        {
          "indexed": true,
          "internalType": "address",
          "name": "operator",
          "type": "address"
        },
        {
          "indexed": false,
          "internalType": "bool",
          "name": "approved",
          "type": "bool"
        }
      ],
      "name": "ApprovalForAll",
      "type": "event"
    },
    {
      "anonymous": false,
      "inputs": [
        {
          "indexed": true,
          "internalType": "address",
          "name": "contractAddress",
          "type": "address"
        },
        {
          "indexed": true,
          "internalType": "address",
          "name": "sender",
          "type": "address"
        }
      ],
      "name": "EventMaxSupplyAndPrice",
      "type": "event"
    },
    {
      "anonymous": false,
      "inputs": [
        {
          "indexed": false,
          "internalType": "address",
          "name": "sender",
          "type": "address"
        },
        {
          "indexed": false,
          "internalType": "string",
          "name": "baseURL",
          "type": "string"
        }
      ],
      "name": "EventSetBaseURL",
      "type": "event"
    },
    {
      "anonymous": false,
      "inputs": [
        {
          "indexed": true,
          "internalType": "address",
          "name": "contractAddress",
          "type": "address"
        },
        {
          "indexed": true,
          "internalType": "address",
          "name": "creator",
          "type": "address"
        },
        {
          "indexed": true,
          "internalType": "uint256",
          "name": "tokenId",
          "type": "uint256"
        },
        {
          "indexed": false,
          "internalType": "string",
          "name": "meta_hash",
          "type": "string"
        }
      ],
      "name": "MetaHashUpdated",
      "type": "event"
    },
    {
      "anonymous": false,
      "inputs": [
        {
          "indexed": true,
          "internalType": "address",
          "name": "contractAddress",
          "type": "address"
        },
        {
          "indexed": true,
          "internalType": "address",
          "name": "creator",
          "type": "address"
        }
      ],
      "name": "MetaHashesUpdated",
      "type": "event"
    },
    {
      "anonymous": false,
      "inputs": [
        {
          "indexed": true,
          "internalType": "address",
          "name": "previousOwner",
          "type": "address"
        },
        {
          "indexed": true,
          "internalType": "address",
          "name": "newOwner",
          "type": "address"
        }
      ],
      "name": "OwnershipTransferred",
      "type": "event"
    },
    {
      "anonymous": false,
      "inputs": [
        {
          "indexed": true,
          "internalType": "address",
          "name": "contractAddress",
          "type": "address"
        },
        {
          "indexed": true,
          "internalType": "address",
          "name": "creator",
          "type": "address"
        },
        {
          "indexed": true,
          "internalType": "uint256",
          "name": "tokenId",
          "type": "uint256"
        }
      ],
      "name": "TokenCreated",
      "type": "event"
    },
    {
      "anonymous": false,
      "inputs": [
        {
          "indexed": true,
          "internalType": "address",
          "name": "contractAddress",
          "type": "address"
        },
        {
          "indexed": true,
          "internalType": "address",
          "name": "creator",
          "type": "address"
        },
        {
          "indexed": false,
          "internalType": "bool",
          "name": "priceMatched",
          "type": "bool"
        }
      ],
      "name": "TokensCreated",
      "type": "event"
    },
    {
      "anonymous": false,
      "inputs": [
        {
          "indexed": true,
          "internalType": "address",
          "name": "from",
          "type": "address"
        },
        {
          "indexed": true,
          "internalType": "address",
          "name": "to",
          "type": "address"
        },
        {
          "indexed": true,
          "internalType": "uint256",
          "name": "tokenId",
          "type": "uint256"
        }
      ],
      "name": "Transfer",
      "type": "event"
    },
    {
      "inputs": [],
      "name": "TOKEN_COUNT",
      "outputs": [
        {
          "internalType": "uint256",
          "name": "",
          "type": "uint256"
        }
      ],
      "stateMutability": "view",
      "type": "function",
      "constant": true
    },
    {
      "inputs": [
        {
          "internalType": "address",
          "name": "to",
          "type": "address"
        },
        {
          "internalType": "uint256",
          "name": "tokenId",
          "type": "uint256"
        }
      ],
      "name": "approve",
      "outputs": [],
      "stateMutability": "nonpayable",
      "type": "function"
    },
    {
      "inputs": [
        {
          "internalType": "address",
          "name": "owner",
          "type": "address"
        }
      ],
      "name": "balanceOf",
      "outputs": [
        {
          "internalType": "uint256",
          "name": "",
          "type": "uint256"
        }
      ],
      "stateMutability": "view",
      "type": "function",
      "constant": true
    },
    {
      "inputs": [
        {
          "internalType": "address",
          "name": "",
          "type": "address"
        }
      ],
      "name": "balance_of_type",
      "outputs": [
        {
          "internalType": "uint256",
          "name": "",
          "type": "uint256"
        }
      ],
      "stateMutability": "view",
      "type": "function",
      "constant": true
    },
    {
      "inputs": [],
      "name": "base_url",
      "outputs": [
        {
          "internalType": "string",
          "name": "",
          "type": "string"
        }
      ],
      "stateMutability": "view",
      "type": "function",
      "constant": true
    },
    {
      "inputs": [
        {
          "internalType": "uint256",
          "name": "tokenId",
          "type": "uint256"
        }
      ],
      "name": "burn",
      "outputs": [],
      "stateMutability": "nonpayable",
      "type": "function"
    },
    {
      "inputs": [],
      "name": "farm_type",
      "outputs": [
        {
          "internalType": "string",
          "name": "name",
          "type": "string"
        },
        {
          "internalType": "string",
          "name": "description",
          "type": "string"
        },
        {
          "internalType": "string",
          "name": "meta_hash",
          "type": "string"
        },
        {
          "internalType": "uint256",
          "name": "total_supply",
          "type": "uint256"
        },
        {
          "internalType": "uint256",
          "name": "max_supply",
          "type": "uint256"
        },
        {
          "internalType": "uint256",
          "name": "price",
          "type": "uint256"
        }
      ],
      "stateMutability": "view",
      "type": "function",
      "constant": true
    },
    {
      "inputs": [
        {
          "internalType": "uint256",
          "name": "tokenId",
          "type": "uint256"
        }
      ],
      "name": "getApproved",
      "outputs": [
        {
          "internalType": "address",
          "name": "",
          "type": "address"
        }
      ],
      "stateMutability": "view",
      "type": "function",
      "constant": true
    },
    {
      "inputs": [
        {
          "internalType": "address",
          "name": "owner",
          "type": "address"
        },
        {
          "internalType": "address",
          "name": "operator",
          "type": "address"
        }
      ],
      "name": "isApprovedForAll",
      "outputs": [
        {
          "internalType": "bool",
          "name": "",
          "type": "bool"
        }
      ],
      "stateMutability": "view",
      "type": "function",
      "constant": true
    },
    {
      "inputs": [],
      "name": "name",
      "outputs": [
        {
          "internalType": "string",
          "name": "",
          "type": "string"
        }
      ],
      "stateMutability": "view",
      "type": "function",
      "constant": true
    },
    {
      "inputs": [],
      "name": "owner",
      "outputs": [
        {
          "internalType": "address",
          "name": "",
          "type": "address"
        }
      ],
      "stateMutability": "view",
      "type": "function",
      "constant": true
    },
    {
      "inputs": [
        {
          "internalType": "uint256",
          "name": "tokenId",
          "type": "uint256"
        }
      ],
      "name": "ownerOf",
      "outputs": [
        {
          "internalType": "address",
          "name": "",
          "type": "address"
        }
      ],
      "stateMutability": "view",
      "type": "function",
      "constant": true
    },
    {
      "inputs": [],
      "name": "renounceOwnership",
      "outputs": [],
      "stateMutability": "nonpayable",
      "type": "function"
    },
    {
      "inputs": [
        {
          "internalType": "address",
          "name": "from",
          "type": "address"
        },
        {
          "internalType": "address",
          "name": "to",
          "type": "address"
        },
        {
          "internalType": "uint256",
          "name": "tokenId",
          "type": "uint256"
        }
      ],
      "name": "safeTransferFrom",
      "outputs": [],
      "stateMutability": "nonpayable",
      "type": "function"
    },
    {
      "inputs": [
        {
          "internalType": "address",
          "name": "from",
          "type": "address"
        },
        {
          "internalType": "address",
          "name": "to",
          "type": "address"
        },
        {
          "internalType": "uint256",
          "name": "tokenId",
          "type": "uint256"
        },
        {
          "internalType": "bytes",
          "name": "_data",
          "type": "bytes"
        }
      ],
      "name": "safeTransferFrom",
      "outputs": [],
      "stateMutability": "nonpayable",
      "type": "function"
    },
    {
      "inputs": [
        {
          "internalType": "address",
          "name": "operator",
          "type": "address"
        },
        {
          "internalType": "bool",
          "name": "approved",
          "type": "bool"
        }
      ],
      "name": "setApprovalForAll",
      "outputs": [],
      "stateMutability": "nonpayable",
      "type": "function"
    },
    {
      "inputs": [],
      "name": "symbol",
      "outputs": [
        {
          "internalType": "string",
          "name": "",
          "type": "string"
        }
      ],
      "stateMutability": "view",
      "type": "function",
      "constant": true
    },
    {
      "inputs": [
        {
          "internalType": "uint256",
          "name": "index",
          "type": "uint256"
        }
      ],
      "name": "tokenByIndex",
      "outputs": [
        {
          "internalType": "uint256",
          "name": "",
          "type": "uint256"
        }
      ],
      "stateMutability": "view",
      "type": "function",
      "constant": true
    },
    {
      "inputs": [
        {
          "internalType": "address",
          "name": "owner",
          "type": "address"
        },
        {
          "internalType": "uint256",
          "name": "index",
          "type": "uint256"
        }
      ],
      "name": "tokenOfOwnerByIndex",
      "outputs": [
        {
          "internalType": "uint256",
          "name": "",
          "type": "uint256"
        }
      ],
      "stateMutability": "view",
      "type": "function",
      "constant": true
    },
    {
      "inputs": [
        {
          "internalType": "uint256",
          "name": "",
          "type": "uint256"
        }
      ],
      "name": "token_types",
      "outputs": [
        {
          "internalType": "uint256",
          "name": "",
          "type": "uint256"
        }
      ],
      "stateMutability": "view",
      "type": "function",
      "constant": true
    },
    {
      "inputs": [],
      "name": "totalSupply",
      "outputs": [
        {
          "internalType": "uint256",
          "name": "",
          "type": "uint256"
        }
      ],
      "stateMutability": "view",
      "type": "function",
      "constant": true
    },
    {
      "inputs": [
        {
          "internalType": "address",
          "name": "from",
          "type": "address"
        },
        {
          "internalType": "address",
          "name": "to",
          "type": "address"
        },
        {
          "internalType": "uint256",
          "name": "tokenId",
          "type": "uint256"
        }
      ],
      "name": "transferFrom",
      "outputs": [],
      "stateMutability": "nonpayable",
      "type": "function"
    },
    {
      "inputs": [
        {
          "internalType": "address",
          "name": "newOwner",
          "type": "address"
        }
      ],
      "name": "transferOwnership",
      "outputs": [],
      "stateMutability": "nonpayable",
      "type": "function"
    },
    {
      "inputs": [
        {
          "internalType": "bytes4",
          "name": "interfaceId",
          "type": "bytes4"
        }
      ],
      "name": "supportsInterface",
      "outputs": [
        {
          "internalType": "bool",
          "name": "",
          "type": "bool"
        }
      ],
      "stateMutability": "view",
      "type": "function",
      "constant": true
    },
    {
      "inputs": [
        {
          "internalType": "uint256",
          "name": "token_id",
          "type": "uint256"
        }
      ],
      "name": "tokenURI",
      "outputs": [
        {
          "internalType": "string",
          "name": "",
          "type": "string"
        }
      ],
      "stateMutability": "view",
      "type": "function",
      "constant": true
    },
    {
      "inputs": [
        {
          "internalType": "string",
          "name": "url",
          "type": "string"
        }
      ],
      "name": "setBaseURI",
      "outputs": [
        {
          "internalType": "string",
          "name": "",
          "type": "string"
        }
      ],
      "stateMutability": "nonpayable",
      "type": "function"
    },
    {
      "inputs": [
        {
          "internalType": "string",
          "name": "_meta_hash",
          "type": "string"
        }
      ],
      "name": "updateMetaHash",
      "outputs": [],
      "stateMutability": "nonpayable",
      "type": "function"
    },
    {
      "inputs": [
        {
          "internalType": "uint256",
          "name": "amount",
          "type": "uint256"
        },
        {
          "internalType": "uint256",
          "name": "price",
          "type": "uint256"
        }
      ],
      "name": "updateMaxSupplyAndPrice",
      "outputs": [],
      "stateMutability": "nonpayable",
      "type": "function"
    },
    {
      "inputs": [
        {
          "internalType": "address",
          "name": "sender",
          "type": "address"
        },
        {
          "internalType": "uint256",
          "name": "amount",
          "type": "uint256"
        }
      ],
      "name": "createToken",
      "outputs": [],
      "stateMutability": "payable",
      "type": "function",
      "payable": true
    },
    {
      "inputs": [],
      "name": "typesStatus",
      "outputs": [
        {
          "internalType": "uint256",
          "name": "mine",
          "type": "uint256"
        }
      ],
      "stateMutability": "view",
      "type": "function",
      "constant": true
    }
  ],
  "bytecode": "0x60806040526001600b553480156200001657600080fd5b506040518060400160405280600981526020017f4661726d546f6b656e00000000000000000000000000000000000000000000008152506040518060400160405280600281526020017f435400000000000000000000000000000000000000000000000000000000000081525081600090805190602001906200009b92919062000468565b508060019080519060200190620000b492919062000468565b505050620000d7620000cb6200025a60201b60201c565b6200026260201b60201c565b604051806060016040528060278152602001620047c160279139600c90805190602001906200010892919062000468565b506200011a336200032860201b60201c565b6040518060c001604052806040518060400160405280600481526020017f4661726d0000000000000000000000000000000000000000000000000000000081525081526020016040518060400160405280600481526020017f4661726d0000000000000000000000000000000000000000000000000000000081525081526020016040518060600160405280602e815260200162004793602e913981526020016000815260200161012c815260200166470de4df820000815250600d6000820151816000019080519060200190620001f492919062000468565b5060208201518160010190805190602001906200021392919062000468565b5060408201518160020190805190602001906200023292919062000468565b50606082015181600301556080820151816004015560a0820151816005015590505062000698565b600033905090565b6000600a60009054906101000a900473ffffffffffffffffffffffffffffffffffffffff16905081600a60006101000a81548173ffffffffffffffffffffffffffffffffffffffff021916908373ffffffffffffffffffffffffffffffffffffffff1602179055508173ffffffffffffffffffffffffffffffffffffffff168173ffffffffffffffffffffffffffffffffffffffff167f8be0079c531659141344cd1fd0a4f28419497f9722a3daafe3b4186f6b6457e060405160405180910390a35050565b620003386200025a60201b60201c565b73ffffffffffffffffffffffffffffffffffffffff166200035e6200043e60201b60201c565b73ffffffffffffffffffffffffffffffffffffffff1614620003b7576040517f08c379a0000000000000000000000000000000000000000000000000000000008152600401620003ae9062000579565b60405180910390fd5b600073ffffffffffffffffffffffffffffffffffffffff168173ffffffffffffffffffffffffffffffffffffffff1614156200042a576040517f08c379a0000000000000000000000000000000000000000000000000000000008152600401620004219062000611565b60405180910390fd5b6200043b816200026260201b60201c565b50565b6000600a60009054906101000a900473ffffffffffffffffffffffffffffffffffffffff16905090565b828054620004769062000662565b90600052602060002090601f0160209004810192826200049a5760008555620004e6565b82601f10620004b557805160ff1916838001178555620004e6565b82800160010185558215620004e6579182015b82811115620004e5578251825591602001919060010190620004c8565b5b509050620004f59190620004f9565b5090565b5b8082111562000514576000816000905550600101620004fa565b5090565b600082825260208201905092915050565b7f4f776e61626c653a2063616c6c6572206973206e6f7420746865206f776e6572600082015250565b60006200056160208362000518565b91506200056e8262000529565b602082019050919050565b60006020820190508181036000830152620005948162000552565b9050919050565b7f4f776e61626c653a206e6577206f776e657220697320746865207a65726f206160008201527f6464726573730000000000000000000000000000000000000000000000000000602082015250565b6000620005f960268362000518565b915062000606826200059b565b604082019050919050565b600060208201905081810360008301526200062c81620005ea565b9050919050565b7f4e487b7100000000000000000000000000000000000000000000000000000000600052602260045260246000fd5b600060028204905060018216806200067b57607f821691505b6020821081141562000692576200069162000633565b5b50919050565b6140eb80620006a86000396000f3fe6080604052600436106101cd5760003560e01c80636352211e116100f7578063a22cb46511610095578063d7bcadd711610064578063d7bcadd7146106b8578063e985e9c5146106e1578063f2fde38b1461071e578063fc7f562a14610747576101cd565b8063a22cb465146105fe578063b88d4fde14610627578063c87b56dd14610650578063caa6be121461068d576101cd565b806370a08231116100d157806370a0823114610554578063715018a6146105915780638da5cb5b146105a857806395d89b41146105d3576101cd565b80636352211e146104be578063639bf24d146104fb5780636a10d4d614610538576101cd565b80632f745c591161016f57806342966c681161013e57806342966c68146103de5780634f6ccce71461040757806355f804b3146104445780635ffbf2dd14610481576101cd565b80632f745c591461031d57806333a1bb261461035a57806341edbdf01461038557806342842e0e146103b5576101cd565b8063095ea7b3116101ab578063095ea7b31461027757806312f0bd0a146102a057806318160ddd146102c957806323b872dd146102f4576101cd565b806301ffc9a7146101d257806306fdde031461020f578063081812fc1461023a575b600080fd5b3480156101de57600080fd5b506101f960048036038101906101f49190612ac9565b610772565b6040516102069190612b11565b60405180910390f35b34801561021b57600080fd5b50610224610784565b6040516102319190612bc5565b60405180910390f35b34801561024657600080fd5b50610261600480360381019061025c9190612c1d565b610816565b60405161026e9190612c8b565b60405180910390f35b34801561028357600080fd5b5061029e60048036038101906102999190612cd2565b61089b565b005b3480156102ac57600080fd5b506102c760048036038101906102c29190612d12565b6109b3565b005b3480156102d557600080fd5b506102de610ac2565b6040516102eb9190612d61565b60405180910390f35b34801561030057600080fd5b5061031b60048036038101906103169190612d7c565b610acf565b005b34801561032957600080fd5b50610344600480360381019061033f9190612cd2565b610b2f565b6040516103519190612d61565b60405180910390f35b34801561036657600080fd5b5061036f610bd4565b60405161037c9190612bc5565b60405180910390f35b34801561039157600080fd5b5061039a610c62565b6040516103ac96959493929190612dcf565b60405180910390f35b3480156103c157600080fd5b506103dc60048036038101906103d79190612d7c565b610e24565b005b3480156103ea57600080fd5b5061040560048036038101906104009190612c1d565b610e44565b005b34801561041357600080fd5b5061042e60048036038101906104299190612c1d565b610ea0565b60405161043b9190612d61565b60405180910390f35b34801561045057600080fd5b5061046b60048036038101906104669190612f7a565b610f11565b6040516104789190612bc5565b60405180910390f35b34801561048d57600080fd5b506104a860048036038101906104a39190612fc3565b610fe5565b6040516104b59190612d61565b60405180910390f35b3480156104ca57600080fd5b506104e560048036038101906104e09190612c1d565b610ffd565b6040516104f29190612c8b565b60405180910390f35b34801561050757600080fd5b50610522600480360381019061051d9190612c1d565b6110af565b60405161052f9190612d61565b60405180910390f35b610552600480360381019061054d9190612cd2565b6110c7565b005b34801561056057600080fd5b5061057b60048036038101906105769190612fc3565b6112e5565b6040516105889190612d61565b60405180910390f35b34801561059d57600080fd5b506105a661139d565b005b3480156105b457600080fd5b506105bd611425565b6040516105ca9190612c8b565b60405180910390f35b3480156105df57600080fd5b506105e861144f565b6040516105f59190612bc5565b60405180910390f35b34801561060a57600080fd5b506106256004803603810190610620919061301c565b6114e1565b005b34801561063357600080fd5b5061064e600480360381019061064991906130fd565b6114f7565b005b34801561065c57600080fd5b5061067760048036038101906106729190612c1d565b611559565b6040516106849190612bc5565b60405180910390f35b34801561069957600080fd5b506106a2611589565b6040516106af9190612d61565b60405180910390f35b3480156106c457600080fd5b506106df60048036038101906106da9190612f7a565b6115d0565b005b3480156106ed57600080fd5b5061070860048036038101906107039190613180565b6116c3565b6040516107159190612b11565b60405180910390f35b34801561072a57600080fd5b5061074560048036038101906107409190612fc3565b611757565b005b34801561075357600080fd5b5061075c61184f565b6040516107699190612d61565b60405180910390f35b600061077d82611855565b9050919050565b606060008054610793906131ef565b80601f01602080910402602001604051908101604052809291908181526020018280546107bf906131ef565b801561080c5780601f106107e15761010080835404028352916020019161080c565b820191906000526020600020905b8154815290600101906020018083116107ef57829003601f168201915b5050505050905090565b6000610821826118cf565b610860576040517f08c379a000000000000000000000000000000000000000000000000000000000815260040161085790613293565b60405180910390fd5b6004600083815260200190815260200160002060009054906101000a900473ffffffffffffffffffffffffffffffffffffffff169050919050565b60006108a682610ffd565b90508073ffffffffffffffffffffffffffffffffffffffff168373ffffffffffffffffffffffffffffffffffffffff161415610917576040517f08c379a000000000000000000000000000000000000000000000000000000000815260040161090e90613325565b60405180910390fd5b8073ffffffffffffffffffffffffffffffffffffffff1661093661193b565b73ffffffffffffffffffffffffffffffffffffffff16148061096557506109648161095f61193b565b6116c3565b5b6109a4576040517f08c379a000000000000000000000000000000000000000000000000000000000815260040161099b906133b7565b60405180910390fd5b6109ae8383611943565b505050565b6109bb61193b565b73ffffffffffffffffffffffffffffffffffffffff166109d9611425565b73ffffffffffffffffffffffffffffffffffffffff1614610a2f576040517f08c379a0000000000000000000000000000000000000000000000000000000008152600401610a2690613423565b60405180910390fd5b81600d6004016000828254610a449190613472565b925050819055506305f5e10081610a5b91906134c8565b600d600501819055503373ffffffffffffffffffffffffffffffffffffffff163073ffffffffffffffffffffffffffffffffffffffff167ff242f8a25856548be91e7ca49ee5838a7666ca45bc107a3f8814dabd586699b060405160405180910390a35050565b6000600880549050905090565b610ae0610ada61193b565b826119fc565b610b1f576040517f08c379a0000000000000000000000000000000000000000000000000000000008152600401610b1690613594565b60405180910390fd5b610b2a838383611ada565b505050565b6000610b3a836112e5565b8210610b7b576040517f08c379a0000000000000000000000000000000000000000000000000000000008152600401610b7290613626565b60405180910390fd5b600660008473ffffffffffffffffffffffffffffffffffffffff1673ffffffffffffffffffffffffffffffffffffffff168152602001908152602001600020600083815260200190815260200160002054905092915050565b600c8054610be1906131ef565b80601f0160208091040260200160405190810160405280929190818152602001828054610c0d906131ef565b8015610c5a5780601f10610c2f57610100808354040283529160200191610c5a565b820191906000526020600020905b815481529060010190602001808311610c3d57829003601f168201915b505050505081565b600d806000018054610c73906131ef565b80601f0160208091040260200160405190810160405280929190818152602001828054610c9f906131ef565b8015610cec5780601f10610cc157610100808354040283529160200191610cec565b820191906000526020600020905b815481529060010190602001808311610ccf57829003601f168201915b505050505090806001018054610d01906131ef565b80601f0160208091040260200160405190810160405280929190818152602001828054610d2d906131ef565b8015610d7a5780601f10610d4f57610100808354040283529160200191610d7a565b820191906000526020600020905b815481529060010190602001808311610d5d57829003601f168201915b505050505090806002018054610d8f906131ef565b80601f0160208091040260200160405190810160405280929190818152602001828054610dbb906131ef565b8015610e085780601f10610ddd57610100808354040283529160200191610e08565b820191906000526020600020905b815481529060010190602001808311610deb57829003601f168201915b5050505050908060030154908060040154908060050154905086565b610e3f838383604051806020016040528060008152506114f7565b505050565b610e55610e4f61193b565b826119fc565b610e94576040517f08c379a0000000000000000000000000000000000000000000000000000000008152600401610e8b906136b8565b60405180910390fd5b610e9d81611d36565b50565b6000610eaa610ac2565b8210610eeb576040517f08c379a0000000000000000000000000000000000000000000000000000000008152600401610ee29061374a565b60405180910390fd5b60088281548110610eff57610efe61376a565b5b90600052602060002001549050919050565b6060610f1b61193b565b73ffffffffffffffffffffffffffffffffffffffff16610f39611425565b73ffffffffffffffffffffffffffffffffffffffff1614610f8f576040517f08c379a0000000000000000000000000000000000000000000000000000000008152600401610f8690613423565b60405180910390fd5b81600c9080519060200190610fa59291906129ba565b507faeb4360f9f54829e7b1a8d6667aa6d755ac3ccab4c3f34d144bb787591131b5433600c604051610fd892919061382e565b60405180910390a1919050565b60146020528060005260406000206000915090505481565b6000806002600084815260200190815260200160002060009054906101000a900473ffffffffffffffffffffffffffffffffffffffff169050600073ffffffffffffffffffffffffffffffffffffffff168173ffffffffffffffffffffffffffffffffffffffff1614156110a6576040517f08c379a000000000000000000000000000000000000000000000000000000000815260040161109d906138d0565b60405180910390fd5b80915050919050565b60136020528060005260406000206000915090505481565b600d6004015481600d600301546110de9190613472565b111561111f576040517f08c379a00000000000000000000000000000000000000000000000000000000081526004016111169061393c565b60405180910390fd5b6000600d600501548261113291906134c8565b9050348114611176576040517f08c379a000000000000000000000000000000000000000000000000000000000815260040161116d906139a8565b60405180910390fd5b600082600d600301600082825461118d9190613472565b9250508190555082601460008673ffffffffffffffffffffffffffffffffffffffff1673ffffffffffffffffffffffffffffffffffffffff16815260200190815260200160002060008282546111e39190613472565b92505081905550600090505b8281101561122a5761121784600b600081548092919061120e906139c8565b91905055611e47565b8080611222906139c8565b9150506111ef565b611232611425565b73ffffffffffffffffffffffffffffffffffffffff166108fc349081150290604051600060405180830381858888f19350505050158015611277573d6000803e3d6000fd5b508373ffffffffffffffffffffffffffffffffffffffff163073ffffffffffffffffffffffffffffffffffffffff167fb7490e05b93b181e9a9c65c68a03450a6568e4b7fce56602f15e528430e302eb8434146040516112d79190612b11565b60405180910390a350505050565b60008073ffffffffffffffffffffffffffffffffffffffff168273ffffffffffffffffffffffffffffffffffffffff161415611356576040517f08c379a000000000000000000000000000000000000000000000000000000000815260040161134d90613a83565b60405180910390fd5b600360008373ffffffffffffffffffffffffffffffffffffffff1673ffffffffffffffffffffffffffffffffffffffff168152602001908152602001600020549050919050565b6113a561193b565b73ffffffffffffffffffffffffffffffffffffffff166113c3611425565b73ffffffffffffffffffffffffffffffffffffffff1614611419576040517f08c379a000000000000000000000000000000000000000000000000000000000815260040161141090613423565b60405180910390fd5b6114236000612015565b565b6000600a60009054906101000a900473ffffffffffffffffffffffffffffffffffffffff16905090565b60606001805461145e906131ef565b80601f016020809104026020016040519081016040528092919081815260200182805461148a906131ef565b80156114d75780601f106114ac576101008083540402835291602001916114d7565b820191906000526020600020905b8154815290600101906020018083116114ba57829003601f168201915b5050505050905090565b6114f36114ec61193b565b83836120db565b5050565b61150861150261193b565b836119fc565b611547576040517f08c379a000000000000000000000000000000000000000000000000000000000815260040161153e90613594565b60405180910390fd5b61155384848484612248565b50505050565b6060600c600d600201604051602001611573929190613b2d565b6040516020818303038152906040529050919050565b6000601460003373ffffffffffffffffffffffffffffffffffffffff1673ffffffffffffffffffffffffffffffffffffffff16815260200190815260200160002054905090565b6115d861193b565b73ffffffffffffffffffffffffffffffffffffffff166115f6611425565b73ffffffffffffffffffffffffffffffffffffffff161461164c576040517f08c379a000000000000000000000000000000000000000000000000000000000815260040161164390613423565b60405180910390fd5b80600d60020190805190602001906116659291906129ba565b503373ffffffffffffffffffffffffffffffffffffffff163073ffffffffffffffffffffffffffffffffffffffff167f1cdc4e397e417044b31e31e39862f18ff37104633f17e56d0f9466b124fd25ac60405160405180910390a350565b6000600560008473ffffffffffffffffffffffffffffffffffffffff1673ffffffffffffffffffffffffffffffffffffffff16815260200190815260200160002060008373ffffffffffffffffffffffffffffffffffffffff1673ffffffffffffffffffffffffffffffffffffffff16815260200190815260200160002060009054906101000a900460ff16905092915050565b61175f61193b565b73ffffffffffffffffffffffffffffffffffffffff1661177d611425565b73ffffffffffffffffffffffffffffffffffffffff16146117d3576040517f08c379a00000000000000000000000000000000000000000000000000000000081526004016117ca90613423565b60405180910390fd5b600073ffffffffffffffffffffffffffffffffffffffff168173ffffffffffffffffffffffffffffffffffffffff161415611843576040517f08c379a000000000000000000000000000000000000000000000000000000000815260040161183a90613bc3565b60405180910390fd5b61184c81612015565b50565b600b5481565b60007f780e9d63000000000000000000000000000000000000000000000000000000007bffffffffffffffffffffffffffffffffffffffffffffffffffffffff1916827bffffffffffffffffffffffffffffffffffffffffffffffffffffffff191614806118c857506118c7826122a4565b5b9050919050565b60008073ffffffffffffffffffffffffffffffffffffffff166002600084815260200190815260200160002060009054906101000a900473ffffffffffffffffffffffffffffffffffffffff1673ffffffffffffffffffffffffffffffffffffffff1614159050919050565b600033905090565b816004600083815260200190815260200160002060006101000a81548173ffffffffffffffffffffffffffffffffffffffff021916908373ffffffffffffffffffffffffffffffffffffffff160217905550808273ffffffffffffffffffffffffffffffffffffffff166119b683610ffd565b73ffffffffffffffffffffffffffffffffffffffff167f8c5be1e5ebec7d5bd14f71427d1e84f3dd0314c0f7b2291e5b200ac8c7c3b92560405160405180910390a45050565b6000611a07826118cf565b611a46576040517f08c379a0000000000000000000000000000000000000000000000000000000008152600401611a3d90613c55565b60405180910390fd5b6000611a5183610ffd565b90508073ffffffffffffffffffffffffffffffffffffffff168473ffffffffffffffffffffffffffffffffffffffff161480611ac057508373ffffffffffffffffffffffffffffffffffffffff16611aa884610816565b73ffffffffffffffffffffffffffffffffffffffff16145b80611ad15750611ad081856116c3565b5b91505092915050565b8273ffffffffffffffffffffffffffffffffffffffff16611afa82610ffd565b73ffffffffffffffffffffffffffffffffffffffff1614611b50576040517f08c379a0000000000000000000000000000000000000000000000000000000008152600401611b4790613ce7565b60405180910390fd5b600073ffffffffffffffffffffffffffffffffffffffff168273ffffffffffffffffffffffffffffffffffffffff161415611bc0576040517f08c379a0000000000000000000000000000000000000000000000000000000008152600401611bb790613d79565b60405180910390fd5b611bcb838383612386565b611bd6600082611943565b6001600360008573ffffffffffffffffffffffffffffffffffffffff1673ffffffffffffffffffffffffffffffffffffffff1681526020019081526020016000206000828254611c269190613d99565b925050819055506001600360008473ffffffffffffffffffffffffffffffffffffffff1673ffffffffffffffffffffffffffffffffffffffff1681526020019081526020016000206000828254611c7d9190613472565b92505081905550816002600083815260200190815260200160002060006101000a81548173ffffffffffffffffffffffffffffffffffffffff021916908373ffffffffffffffffffffffffffffffffffffffff160217905550808273ffffffffffffffffffffffffffffffffffffffff168473ffffffffffffffffffffffffffffffffffffffff167fddf252ad1be2c89b69c2b068fc378daa952ba7f163c4a11628f55a4df523b3ef60405160405180910390a4505050565b6000611d4182610ffd565b9050611d4f81600084612386565b611d5a600083611943565b6001600360008373ffffffffffffffffffffffffffffffffffffffff1673ffffffffffffffffffffffffffffffffffffffff1681526020019081526020016000206000828254611daa9190613d99565b925050819055506002600083815260200190815260200160002060006101000a81549073ffffffffffffffffffffffffffffffffffffffff021916905581600073ffffffffffffffffffffffffffffffffffffffff168273ffffffffffffffffffffffffffffffffffffffff167fddf252ad1be2c89b69c2b068fc378daa952ba7f163c4a11628f55a4df523b3ef60405160405180910390a45050565b600073ffffffffffffffffffffffffffffffffffffffff168273ffffffffffffffffffffffffffffffffffffffff161415611eb7576040517f08c379a0000000000000000000000000000000000000000000000000000000008152600401611eae90613e19565b60405180910390fd5b611ec0816118cf565b15611f00576040517f08c379a0000000000000000000000000000000000000000000000000000000008152600401611ef790613e85565b60405180910390fd5b611f0c60008383612386565b6001600360008473ffffffffffffffffffffffffffffffffffffffff1673ffffffffffffffffffffffffffffffffffffffff1681526020019081526020016000206000828254611f5c9190613472565b92505081905550816002600083815260200190815260200160002060006101000a81548173ffffffffffffffffffffffffffffffffffffffff021916908373ffffffffffffffffffffffffffffffffffffffff160217905550808273ffffffffffffffffffffffffffffffffffffffff16600073ffffffffffffffffffffffffffffffffffffffff167fddf252ad1be2c89b69c2b068fc378daa952ba7f163c4a11628f55a4df523b3ef60405160405180910390a45050565b6000600a60009054906101000a900473ffffffffffffffffffffffffffffffffffffffff16905081600a60006101000a81548173ffffffffffffffffffffffffffffffffffffffff021916908373ffffffffffffffffffffffffffffffffffffffff1602179055508173ffffffffffffffffffffffffffffffffffffffff168173ffffffffffffffffffffffffffffffffffffffff167f8be0079c531659141344cd1fd0a4f28419497f9722a3daafe3b4186f6b6457e060405160405180910390a35050565b8173ffffffffffffffffffffffffffffffffffffffff168373ffffffffffffffffffffffffffffffffffffffff16141561214a576040517f08c379a000000000000000000000000000000000000000000000000000000000815260040161214190613ef1565b60405180910390fd5b80600560008573ffffffffffffffffffffffffffffffffffffffff1673ffffffffffffffffffffffffffffffffffffffff16815260200190815260200160002060008473ffffffffffffffffffffffffffffffffffffffff1673ffffffffffffffffffffffffffffffffffffffff16815260200190815260200160002060006101000a81548160ff0219169083151502179055508173ffffffffffffffffffffffffffffffffffffffff168373ffffffffffffffffffffffffffffffffffffffff167f17307eab39ab6107e8899845ad3d59bd9653f200f220920489ca2b5937696c318360405161223b9190612b11565b60405180910390a3505050565b612253848484611ada565b61225f84848484612396565b61229e576040517f08c379a000000000000000000000000000000000000000000000000000000000815260040161229590613f83565b60405180910390fd5b50505050565b60007f80ac58cd000000000000000000000000000000000000000000000000000000007bffffffffffffffffffffffffffffffffffffffffffffffffffffffff1916827bffffffffffffffffffffffffffffffffffffffffffffffffffffffff1916148061236f57507f5b5e139f000000000000000000000000000000000000000000000000000000007bffffffffffffffffffffffffffffffffffffffffffffffffffffffff1916827bffffffffffffffffffffffffffffffffffffffffffffffffffffffff1916145b8061237f575061237e8261251e565b5b9050919050565b612391838383612588565b505050565b60006123b78473ffffffffffffffffffffffffffffffffffffffff1661269c565b15612511578373ffffffffffffffffffffffffffffffffffffffff1663150b7a026123e061193b565b8786866040518563ffffffff1660e01b81526004016124029493929190613ff8565b6020604051808303816000875af192505050801561243e57506040513d601f19601f8201168201806040525081019061243b9190614059565b60015b6124c1573d806000811461246e576040519150601f19603f3d011682016040523d82523d6000602084013e612473565b606091505b506000815114156124b9576040517f08c379a00000000000000000000000000000000000000000000000000000000081526004016124b090613f83565b60405180910390fd5b805181602001fd5b63150b7a0260e01b7bffffffffffffffffffffffffffffffffffffffffffffffffffffffff1916817bffffffffffffffffffffffffffffffffffffffffffffffffffffffff191614915050612516565b600190505b949350505050565b60007f01ffc9a7000000000000000000000000000000000000000000000000000000007bffffffffffffffffffffffffffffffffffffffffffffffffffffffff1916827bffffffffffffffffffffffffffffffffffffffffffffffffffffffff1916149050919050565b6125938383836126af565b600073ffffffffffffffffffffffffffffffffffffffff168373ffffffffffffffffffffffffffffffffffffffff1614156125d6576125d1816126b4565b612615565b8173ffffffffffffffffffffffffffffffffffffffff168373ffffffffffffffffffffffffffffffffffffffff16146126145761261383826126fd565b5b5b600073ffffffffffffffffffffffffffffffffffffffff168273ffffffffffffffffffffffffffffffffffffffff161415612658576126538161286a565b612697565b8273ffffffffffffffffffffffffffffffffffffffff168273ffffffffffffffffffffffffffffffffffffffff161461269657612695828261293b565b5b5b505050565b600080823b905060008111915050919050565b505050565b6008805490506009600083815260200190815260200160002081905550600881908060018154018082558091505060019003906000526020600020016000909190919091505550565b6000600161270a846112e5565b6127149190613d99565b90506000600760008481526020019081526020016000205490508181146127f9576000600660008673ffffffffffffffffffffffffffffffffffffffff1673ffffffffffffffffffffffffffffffffffffffff168152602001908152602001600020600084815260200190815260200160002054905080600660008773ffffffffffffffffffffffffffffffffffffffff1673ffffffffffffffffffffffffffffffffffffffff168152602001908152602001600020600084815260200190815260200160002081905550816007600083815260200190815260200160002081905550505b6007600084815260200190815260200160002060009055600660008573ffffffffffffffffffffffffffffffffffffffff1673ffffffffffffffffffffffffffffffffffffffff16815260200190815260200160002060008381526020019081526020016000206000905550505050565b6000600160088054905061287e9190613d99565b90506000600960008481526020019081526020016000205490506000600883815481106128ae576128ad61376a565b5b9060005260206000200154905080600883815481106128d0576128cf61376a565b5b90600052602060002001819055508160096000838152602001908152602001600020819055506009600085815260200190815260200160002060009055600880548061291f5761291e614086565b5b6001900381819060005260206000200160009055905550505050565b6000612946836112e5565b905081600660008573ffffffffffffffffffffffffffffffffffffffff1673ffffffffffffffffffffffffffffffffffffffff168152602001908152602001600020600083815260200190815260200160002081905550806007600084815260200190815260200160002081905550505050565b8280546129c6906131ef565b90600052602060002090601f0160209004810192826129e85760008555612a2f565b82601f10612a0157805160ff1916838001178555612a2f565b82800160010185558215612a2f579182015b82811115612a2e578251825591602001919060010190612a13565b5b509050612a3c9190612a40565b5090565b5b80821115612a59576000816000905550600101612a41565b5090565b6000604051905090565b600080fd5b600080fd5b60007fffffffff0000000000000000000000000000000000000000000000000000000082169050919050565b612aa681612a71565b8114612ab157600080fd5b50565b600081359050612ac381612a9d565b92915050565b600060208284031215612adf57612ade612a67565b5b6000612aed84828501612ab4565b91505092915050565b60008115159050919050565b612b0b81612af6565b82525050565b6000602082019050612b266000830184612b02565b92915050565b600081519050919050565b600082825260208201905092915050565b60005b83811015612b66578082015181840152602081019050612b4b565b83811115612b75576000848401525b50505050565b6000601f19601f8301169050919050565b6000612b9782612b2c565b612ba18185612b37565b9350612bb1818560208601612b48565b612bba81612b7b565b840191505092915050565b60006020820190508181036000830152612bdf8184612b8c565b905092915050565b6000819050919050565b612bfa81612be7565b8114612c0557600080fd5b50565b600081359050612c1781612bf1565b92915050565b600060208284031215612c3357612c32612a67565b5b6000612c4184828501612c08565b91505092915050565b600073ffffffffffffffffffffffffffffffffffffffff82169050919050565b6000612c7582612c4a565b9050919050565b612c8581612c6a565b82525050565b6000602082019050612ca06000830184612c7c565b92915050565b612caf81612c6a565b8114612cba57600080fd5b50565b600081359050612ccc81612ca6565b92915050565b60008060408385031215612ce957612ce8612a67565b5b6000612cf785828601612cbd565b9250506020612d0885828601612c08565b9150509250929050565b60008060408385031215612d2957612d28612a67565b5b6000612d3785828601612c08565b9250506020612d4885828601612c08565b9150509250929050565b612d5b81612be7565b82525050565b6000602082019050612d766000830184612d52565b92915050565b600080600060608486031215612d9557612d94612a67565b5b6000612da386828701612cbd565b9350506020612db486828701612cbd565b9250506040612dc586828701612c08565b9150509250925092565b600060c0820190508181036000830152612de98189612b8c565b90508181036020830152612dfd8188612b8c565b90508181036040830152612e118187612b8c565b9050612e206060830186612d52565b612e2d6080830185612d52565b612e3a60a0830184612d52565b979650505050505050565b600080fd5b600080fd5b7f4e487b7100000000000000000000000000000000000000000000000000000000600052604160045260246000fd5b612e8782612b7b565b810181811067ffffffffffffffff82111715612ea657612ea5612e4f565b5b80604052505050565b6000612eb9612a5d565b9050612ec58282612e7e565b919050565b600067ffffffffffffffff821115612ee557612ee4612e4f565b5b612eee82612b7b565b9050602081019050919050565b82818337600083830152505050565b6000612f1d612f1884612eca565b612eaf565b905082815260208101848484011115612f3957612f38612e4a565b5b612f44848285612efb565b509392505050565b600082601f830112612f6157612f60612e45565b5b8135612f71848260208601612f0a565b91505092915050565b600060208284031215612f9057612f8f612a67565b5b600082013567ffffffffffffffff811115612fae57612fad612a6c565b5b612fba84828501612f4c565b91505092915050565b600060208284031215612fd957612fd8612a67565b5b6000612fe784828501612cbd565b91505092915050565b612ff981612af6565b811461300457600080fd5b50565b60008135905061301681612ff0565b92915050565b6000806040838503121561303357613032612a67565b5b600061304185828601612cbd565b925050602061305285828601613007565b9150509250929050565b600067ffffffffffffffff82111561307757613076612e4f565b5b61308082612b7b565b9050602081019050919050565b60006130a061309b8461305c565b612eaf565b9050828152602081018484840111156130bc576130bb612e4a565b5b6130c7848285612efb565b509392505050565b600082601f8301126130e4576130e3612e45565b5b81356130f484826020860161308d565b91505092915050565b6000806000806080858703121561311757613116612a67565b5b600061312587828801612cbd565b945050602061313687828801612cbd565b935050604061314787828801612c08565b925050606085013567ffffffffffffffff81111561316857613167612a6c565b5b613174878288016130cf565b91505092959194509250565b6000806040838503121561319757613196612a67565b5b60006131a585828601612cbd565b92505060206131b685828601612cbd565b9150509250929050565b7f4e487b7100000000000000000000000000000000000000000000000000000000600052602260045260246000fd5b6000600282049050600182168061320757607f821691505b6020821081141561321b5761321a6131c0565b5b50919050565b7f4552433732313a20617070726f76656420717565727920666f72206e6f6e657860008201527f697374656e7420746f6b656e0000000000000000000000000000000000000000602082015250565b600061327d602c83612b37565b915061328882613221565b604082019050919050565b600060208201905081810360008301526132ac81613270565b9050919050565b7f4552433732313a20617070726f76616c20746f2063757272656e74206f776e6560008201527f7200000000000000000000000000000000000000000000000000000000000000602082015250565b600061330f602183612b37565b915061331a826132b3565b604082019050919050565b6000602082019050818103600083015261333e81613302565b9050919050565b7f4552433732313a20617070726f76652063616c6c6572206973206e6f74206f7760008201527f6e6572206e6f7220617070726f76656420666f7220616c6c0000000000000000602082015250565b60006133a1603883612b37565b91506133ac82613345565b604082019050919050565b600060208201905081810360008301526133d081613394565b9050919050565b7f4f776e61626c653a2063616c6c6572206973206e6f7420746865206f776e6572600082015250565b600061340d602083612b37565b9150613418826133d7565b602082019050919050565b6000602082019050818103600083015261343c81613400565b9050919050565b7f4e487b7100000000000000000000000000000000000000000000000000000000600052601160045260246000fd5b600061347d82612be7565b915061348883612be7565b9250827fffffffffffffffffffffffffffffffffffffffffffffffffffffffffffffffff038211156134bd576134bc613443565b5b828201905092915050565b60006134d382612be7565b91506134de83612be7565b9250817fffffffffffffffffffffffffffffffffffffffffffffffffffffffffffffffff048311821515161561351757613516613443565b5b828202905092915050565b7f4552433732313a207472616e736665722063616c6c6572206973206e6f74206f60008201527f776e6572206e6f7220617070726f766564000000000000000000000000000000602082015250565b600061357e603183612b37565b915061358982613522565b604082019050919050565b600060208201905081810360008301526135ad81613571565b9050919050565b7f455243373231456e756d657261626c653a206f776e657220696e646578206f7560008201527f74206f6620626f756e6473000000000000000000000000000000000000000000602082015250565b6000613610602b83612b37565b915061361b826135b4565b604082019050919050565b6000602082019050818103600083015261363f81613603565b9050919050565b7f4552433732314275726e61626c653a2063616c6c6572206973206e6f74206f7760008201527f6e6572206e6f7220617070726f76656400000000000000000000000000000000602082015250565b60006136a2603083612b37565b91506136ad82613646565b604082019050919050565b600060208201905081810360008301526136d181613695565b9050919050565b7f455243373231456e756d657261626c653a20676c6f62616c20696e646578206f60008201527f7574206f6620626f756e64730000000000000000000000000000000000000000602082015250565b6000613734602c83612b37565b915061373f826136d8565b604082019050919050565b6000602082019050818103600083015261376381613727565b9050919050565b7f4e487b7100000000000000000000000000000000000000000000000000000000600052603260045260246000fd5b60008190508160005260206000209050919050565b600081546137bb816131ef565b6137c58186612b37565b945060018216600081146137e057600181146137f257613825565b60ff1983168652602086019350613825565b6137fb85613799565b60005b8381101561381d578154818901526001820191506020810190506137fe565b808801955050505b50505092915050565b60006040820190506138436000830185612c7c565b818103602083015261385581846137ae565b90509392505050565b7f4552433732313a206f776e657220717565727920666f72206e6f6e657869737460008201527f656e7420746f6b656e0000000000000000000000000000000000000000000000602082015250565b60006138ba602983612b37565b91506138c58261385e565b604082019050919050565b600060208201905081810360008301526138e9816138ad565b9050919050565b7f4d4158204c494d49542045584345454400000000000000000000000000000000600082015250565b6000613926601083612b37565b9150613931826138f0565b602082019050919050565b6000602082019050818103600083015261395581613919565b9050919050565b7f5072696365204469736d61746368656421000000000000000000000000000000600082015250565b6000613992601183612b37565b915061399d8261395c565b602082019050919050565b600060208201905081810360008301526139c181613985565b9050919050565b60006139d382612be7565b91507fffffffffffffffffffffffffffffffffffffffffffffffffffffffffffffffff821415613a0657613a05613443565b5b600182019050919050565b7f4552433732313a2062616c616e636520717565727920666f7220746865207a6560008201527f726f206164647265737300000000000000000000000000000000000000000000602082015250565b6000613a6d602a83612b37565b9150613a7882613a11565b604082019050919050565b60006020820190508181036000830152613a9c81613a60565b9050919050565b600081905092915050565b60008154613abb816131ef565b613ac58186613aa3565b94506001821660008114613ae05760018114613af157613b24565b60ff19831686528186019350613b24565b613afa85613799565b60005b83811015613b1c57815481890152600182019150602081019050613afd565b838801955050505b50505092915050565b6000613b398285613aae565b9150613b458284613aae565b91508190509392505050565b7f4f776e61626c653a206e6577206f776e657220697320746865207a65726f206160008201527f6464726573730000000000000000000000000000000000000000000000000000602082015250565b6000613bad602683612b37565b9150613bb882613b51565b604082019050919050565b60006020820190508181036000830152613bdc81613ba0565b9050919050565b7f4552433732313a206f70657261746f7220717565727920666f72206e6f6e657860008201527f697374656e7420746f6b656e0000000000000000000000000000000000000000602082015250565b6000613c3f602c83612b37565b9150613c4a82613be3565b604082019050919050565b60006020820190508181036000830152613c6e81613c32565b9050919050565b7f4552433732313a207472616e73666572206f6620746f6b656e2074686174206960008201527f73206e6f74206f776e0000000000000000000000000000000000000000000000602082015250565b6000613cd1602983612b37565b9150613cdc82613c75565b604082019050919050565b60006020820190508181036000830152613d0081613cc4565b9050919050565b7f4552433732313a207472616e7366657220746f20746865207a65726f2061646460008201527f7265737300000000000000000000000000000000000000000000000000000000602082015250565b6000613d63602483612b37565b9150613d6e82613d07565b604082019050919050565b60006020820190508181036000830152613d9281613d56565b9050919050565b6000613da482612be7565b9150613daf83612be7565b925082821015613dc257613dc1613443565b5b828203905092915050565b7f4552433732313a206d696e7420746f20746865207a65726f2061646472657373600082015250565b6000613e03602083612b37565b9150613e0e82613dcd565b602082019050919050565b60006020820190508181036000830152613e3281613df6565b9050919050565b7f4552433732313a20746f6b656e20616c7265616479206d696e74656400000000600082015250565b6000613e6f601c83612b37565b9150613e7a82613e39565b602082019050919050565b60006020820190508181036000830152613e9e81613e62565b9050919050565b7f4552433732313a20617070726f766520746f2063616c6c657200000000000000600082015250565b6000613edb601983612b37565b9150613ee682613ea5565b602082019050919050565b60006020820190508181036000830152613f0a81613ece565b9050919050565b7f4552433732313a207472616e7366657220746f206e6f6e20455243373231526560008201527f63656976657220696d706c656d656e7465720000000000000000000000000000602082015250565b6000613f6d603283612b37565b9150613f7882613f11565b604082019050919050565b60006020820190508181036000830152613f9c81613f60565b9050919050565b600081519050919050565b600082825260208201905092915050565b6000613fca82613fa3565b613fd48185613fae565b9350613fe4818560208601612b48565b613fed81612b7b565b840191505092915050565b600060808201905061400d6000830187612c7c565b61401a6020830186612c7c565b6140276040830185612d52565b81810360608301526140398184613fbf565b905095945050505050565b60008151905061405381612a9d565b92915050565b60006020828403121561406f5761406e612a67565b5b600061407d84828501614044565b91505092915050565b7f4e487b7100000000000000000000000000000000000000000000000000000000600052603160045260246000fdfea26469706673582212200c509c078b066c666e3e33577961b1e964fe09afc6c79d7c0e10cbc9ad4d05ac64736f6c634300080a0033516d577279344c6d617942674134553438386944676f774b327471506e7368547255775765374e4a5469666d513668747470733a2f2f6661726d656e657267792e6d7970696e6174612e636c6f75642f697066732f",
  "immutableReferences": {},
  "source": "// SPDX-License-Identifier: MIT\r\npragma solidity ^0.8;\r\n\r\nimport \"@openzeppelin/contracts/access/Ownable.sol\";\r\nimport \"@openzeppelin/contracts/token/ERC721/extensions/ERC721Burnable.sol\";\r\nimport \"@openzeppelin/contracts/token/ERC721/extensions/ERC721Enumerable.sol\";\r\nimport \"./IFarmNFT.sol\";\r\n\r\ncontract FarmNFT is ERC721Burnable, IFarmNFT, ERC721Enumerable, Ownable {\r\n\r\n    uint256 public TOKEN_COUNT = 1;\r\n    string public base_url;\r\n\r\n    struct FarmType {\r\n        string name;\r\n        string description;\r\n        string meta_hash;\r\n        uint256 total_supply;\r\n        uint256 max_supply;\r\n        uint256 price;\r\n    }\r\n    FarmType public farm_type;\r\n    mapping (uint256 => uint256) public token_types;\r\n    mapping (address => uint256) public balance_of_type;\r\n\r\n    event EventSetBaseURL(address sender, string baseURL);\r\n\r\n    constructor (\r\n        // address creator\r\n    ) ERC721(\"FarmToken\", \"CT\") {\r\n        base_url = \"https://farmenergy.mypinata.cloud/ipfs/\";\r\n        transferOwnership(msg.sender);\r\n        farm_type = FarmType(\"Farm\", \"Farm\", \"QmWry4LmayBgA4U488iDgowK2tqPnshTrUwWe7NJTifmQ6\", 0, 300, 0.02 * 1e18);\r\n    }\r\n\r\n    // ERC721Enumerable\r\n    function _beforeTokenTransfer(address from, address to, uint256 tokenId) internal override(ERC721, ERC721Enumerable) {\r\n        super._beforeTokenTransfer(from, to, tokenId);\r\n    }\r\n\r\n    function supportsInterface(bytes4 interfaceId) public view override(ERC721, ERC721Enumerable) returns (bool) {\r\n        return super.supportsInterface(interfaceId);\r\n    }\r\n\r\n    function tokenURI(uint256 token_id)\r\n        public override view returns (string memory)\r\n    {\r\n        return string(\r\n            abi.encodePacked(\r\n                base_url,\r\n                farm_type.meta_hash\r\n            )\r\n        );\r\n    }\r\n    // ERC721Enumerable\r\n\r\n    function setBaseURI(string memory url) public onlyOwner returns (string memory) {\r\n        base_url = url;\r\n        emit EventSetBaseURL(msg.sender, base_url);\r\n    }\r\n    \r\n    function updateMetaHash(string memory _meta_hash) public onlyOwner {\r\n        farm_type.meta_hash = _meta_hash;\r\n        emit MetaHashesUpdated(address(this), msg.sender);\r\n    }\r\n\r\n    event EventMaxSupplyAndPrice(address indexed contractAddress, address indexed sender);\r\n    function updateMaxSupplyAndPrice(uint256 amount, uint256 price) public onlyOwner {\r\n        farm_type.max_supply += amount;\r\n        farm_type.price = price * 1e8;  // price is 1e10 so to make 1e18 we have to multiple 1e8\r\n        emit EventMaxSupplyAndPrice(address(this), msg.sender);\r\n    }\r\n\r\n    function createToken(address sender, uint256 amount)\r\n        public payable {\r\n        require(farm_type.total_supply + amount <= farm_type.max_supply, \"MAX LIMIT EXCEED\");\r\n\r\n        uint256 price = amount * farm_type.price;\r\n        require (price == msg.value, \"Price Dismatched!\");\r\n\r\n        uint256 i;\r\n        farm_type.total_supply += amount;\r\n        balance_of_type[sender] += amount;\r\n        \r\n        for (i = 0; i < amount; i ++) {\r\n            _mint(sender, TOKEN_COUNT ++);\r\n        }\r\n        // Emit Event\r\n        payable(owner()).transfer(msg.value);\r\n        emit TokensCreated(address(this), sender, msg.value == price);\r\n    }\r\n\r\n    function typesStatus() public view returns (\r\n        uint256 mine)\r\n    {\r\n        mine= balance_of_type[msg.sender];\r\n        return mine;\r\n    }\r\n\r\n}",
  "sourcePath": "E:\\2.Dev\\Clients\\Indonesia -- Willy(NFT)\\FarmEnergy\\Presale\\src\\contracts\\Token\\FarmNFT.sol",
  "compiler": {
    "name": "solc",
    "version": "0.8.10+commit.fc410830.Emscripten.clang"
  },
  "schemaVersion": "3.4.3",
  "updatedAt": "2021-12-28T06:13:32.918Z",
  "networkType": "ethereum",
  "devdoc": {
    "kind": "dev",
    "methods": {
      "approve(address,uint256)": {
        "details": "See {IERC721-approve}."
      },
      "balanceOf(address)": {
        "details": "See {IERC721-balanceOf}."
      },
      "burn(uint256)": {
        "details": "Burns `tokenId`. See {ERC721-_burn}. Requirements: - The caller must own `tokenId` or be an approved operator."
      },
      "getApproved(uint256)": {
        "details": "See {IERC721-getApproved}."
      },
      "isApprovedForAll(address,address)": {
        "details": "See {IERC721-isApprovedForAll}."
      },
      "name()": {
        "details": "See {IERC721Metadata-name}."
      },
      "owner()": {
        "details": "Returns the address of the current owner."
      },
      "ownerOf(uint256)": {
        "details": "See {IERC721-ownerOf}."
      },
      "renounceOwnership()": {
        "details": "Leaves the contract without owner. It will not be possible to call `onlyOwner` functions anymore. Can only be called by the current owner. NOTE: Renouncing ownership will leave the contract without an owner, thereby removing any functionality that is only available to the owner."
      },
      "safeTransferFrom(address,address,uint256)": {
        "details": "See {IERC721-safeTransferFrom}."
      },
      "safeTransferFrom(address,address,uint256,bytes)": {
        "details": "See {IERC721-safeTransferFrom}."
      },
      "setApprovalForAll(address,bool)": {
        "details": "See {IERC721-setApprovalForAll}."
      },
      "symbol()": {
        "details": "See {IERC721Metadata-symbol}."
      },
      "tokenByIndex(uint256)": {
        "details": "See {IERC721Enumerable-tokenByIndex}."
      },
      "tokenOfOwnerByIndex(address,uint256)": {
        "details": "See {IERC721Enumerable-tokenOfOwnerByIndex}."
      },
      "totalSupply()": {
        "details": "See {IERC721Enumerable-totalSupply}."
      },
      "transferFrom(address,address,uint256)": {
        "details": "See {IERC721-transferFrom}."
      },
      "transferOwnership(address)": {
        "details": "Transfers ownership of the contract to a new account (`newOwner`). Can only be called by the current owner."
      }
    },
    "version": 1
  },
  "userdoc": {
    "kind": "user",
    "methods": {},
    "version": 1
  }
}