{
  "contractName": "PresaleContract",
  "abi": [
    {
      "inputs": [
        {
          "internalType": "address",
          "name": "_cowNFT",
          "type": "address"
        },
        {
          "internalType": "address",
          "name": "_farmNFT",
          "type": "address"
        }
      ],
      "stateMutability": "nonpayable",
      "type": "constructor"
    },
    {
      "anonymous": false,
      "inputs": [
        {
          "indexed": true,
          "internalType": "address",
          "name": "previousOwner",
          "type": "address"
        },
        {
          "indexed": true,
          "internalType": "address",
          "name": "newOwner",
          "type": "address"
        }
      ],
      "name": "OwnershipTransferred",
      "type": "event"
    },
    {
      "anonymous": false,
      "inputs": [
        {
          "indexed": true,
          "internalType": "address",
          "name": "contractAddress",
          "type": "address"
        },
        {
          "indexed": true,
          "internalType": "address",
          "name": "creator",
          "type": "address"
        }
      ],
      "name": "Presaled",
      "type": "event"
    },
    {
      "inputs": [],
      "name": "owner",
      "outputs": [
        {
          "internalType": "address",
          "name": "",
          "type": "address"
        }
      ],
      "stateMutability": "view",
      "type": "function",
      "constant": true
    },
    {
      "inputs": [],
      "name": "renounceOwnership",
      "outputs": [],
      "stateMutability": "nonpayable",
      "type": "function"
    },
    {
      "inputs": [
        {
          "internalType": "address",
          "name": "newOwner",
          "type": "address"
        }
      ],
      "name": "transferOwnership",
      "outputs": [],
      "stateMutability": "nonpayable",
      "type": "function"
    },
    {
      "inputs": [
        {
          "internalType": "uint256[]",
          "name": "type_ids",
          "type": "uint256[]"
        },
        {
          "internalType": "uint256[]",
          "name": "amounts",
          "type": "uint256[]"
        },
        {
          "internalType": "uint256",
          "name": "farm_amount",
          "type": "uint256"
        }
      ],
      "name": "updateMaxSupplys",
      "outputs": [],
      "stateMutability": "nonpayable",
      "type": "function"
    },
    {
      "inputs": [
        {
          "internalType": "uint256[]",
          "name": "cow_type_ids",
          "type": "uint256[]"
        },
        {
          "internalType": "uint256[]",
          "name": "cow_amounts",
          "type": "uint256[]"
        },
        {
          "internalType": "uint256",
          "name": "farm_amount",
          "type": "uint256"
        }
      ],
      "name": "presale",
      "outputs": [],
      "stateMutability": "payable",
      "type": "function",
      "payable": true
    }
  ],
  "bytecode": "0x60806040523480156200001157600080fd5b506040516200128938038062001289833981810160405281019062000037919062000367565b620000576200004b620000f260201b60201c565b620000fa60201b60201c565b81600160006101000a81548173ffffffffffffffffffffffffffffffffffffffff021916908373ffffffffffffffffffffffffffffffffffffffff16021790555080600260006101000a81548173ffffffffffffffffffffffffffffffffffffffff021916908373ffffffffffffffffffffffffffffffffffffffff160217905550620000ea33620001be60201b60201c565b5050620004c9565b600033905090565b60008060009054906101000a900473ffffffffffffffffffffffffffffffffffffffff169050816000806101000a81548173ffffffffffffffffffffffffffffffffffffffff021916908373ffffffffffffffffffffffffffffffffffffffff1602179055508173ffffffffffffffffffffffffffffffffffffffff168173ffffffffffffffffffffffffffffffffffffffff167f8be0079c531659141344cd1fd0a4f28419497f9722a3daafe3b4186f6b6457e060405160405180910390a35050565b620001ce620000f260201b60201c565b73ffffffffffffffffffffffffffffffffffffffff16620001f4620002d460201b60201c565b73ffffffffffffffffffffffffffffffffffffffff16146200024d576040517f08c379a000000000000000000000000000000000000000000000000000000000815260040162000244906200040f565b60405180910390fd5b600073ffffffffffffffffffffffffffffffffffffffff168173ffffffffffffffffffffffffffffffffffffffff161415620002c0576040517f08c379a0000000000000000000000000000000000000000000000000000000008152600401620002b790620004a7565b60405180910390fd5b620002d181620000fa60201b60201c565b50565b60008060009054906101000a900473ffffffffffffffffffffffffffffffffffffffff16905090565b600080fd5b600073ffffffffffffffffffffffffffffffffffffffff82169050919050565b60006200032f8262000302565b9050919050565b620003418162000322565b81146200034d57600080fd5b50565b600081519050620003618162000336565b92915050565b60008060408385031215620003815762000380620002fd565b5b6000620003918582860162000350565b9250506020620003a48582860162000350565b9150509250929050565b600082825260208201905092915050565b7f4f776e61626c653a2063616c6c6572206973206e6f7420746865206f776e6572600082015250565b6000620003f7602083620003ae565b91506200040482620003bf565b602082019050919050565b600060208201905081810360008301526200042a81620003e8565b9050919050565b7f4f776e61626c653a206e6577206f776e657220697320746865207a65726f206160008201527f6464726573730000000000000000000000000000000000000000000000000000602082015250565b60006200048f602683620003ae565b91506200049c8262000431565b604082019050919050565b60006020820190508181036000830152620004c28162000480565b9050919050565b610db080620004d96000396000f3fe60806040526004361061004a5760003560e01c8063715018a61461004f5780638da5cb5b14610066578063a5d2df7c14610091578063afe5e6cd146100ad578063f2fde38b146100d6575b600080fd5b34801561005b57600080fd5b506100646100ff565b005b34801561007257600080fd5b5061007b610187565b6040516100889190610790565b60405180910390f35b6100ab60048036038101906100a6919061094e565b6101b0565b005b3480156100b957600080fd5b506100d460048036038101906100cf919061094e565b6103ee565b005b3480156100e257600080fd5b506100fd60048036038101906100f89190610a05565b61058b565b005b610107610683565b73ffffffffffffffffffffffffffffffffffffffff16610125610187565b73ffffffffffffffffffffffffffffffffffffffff161461017b576040517f08c379a000000000000000000000000000000000000000000000000000000000815260040161017290610a8f565b60405180910390fd5b610185600061068b565b565b60008060009054906101000a900473ffffffffffffffffffffffffffffffffffffffff16905090565b6000600160009054906101000a900473ffffffffffffffffffffffffffffffffffffffff1673ffffffffffffffffffffffffffffffffffffffff166336698be385856040518363ffffffff1660e01b815260040161020f929190610b6d565b602060405180830381865afa15801561022c573d6000803e3d6000fd5b505050506040513d601f19601f820116820180604052508101906102509190610bb9565b9050600260009054906101000a900473ffffffffffffffffffffffffffffffffffffffff1673ffffffffffffffffffffffffffffffffffffffff1663e7572230836040518263ffffffff1660e01b81526004016102ad9190610bf5565b602060405180830381865afa1580156102ca573d6000803e3d6000fd5b505050506040513d601f19601f820116820180604052508101906102ee9190610bb9565b816102f99190610c3f565b9050600160009054906101000a900473ffffffffffffffffffffffffffffffffffffffff1673ffffffffffffffffffffffffffffffffffffffff1663df0d591f338686856040518563ffffffff1660e01b815260040161035c9493929190610c95565b600060405180830381600087803b15801561037657600080fd5b505af115801561038a573d6000803e3d6000fd5b505050503373ffffffffffffffffffffffffffffffffffffffff163073ffffffffffffffffffffffffffffffffffffffff167f56dced7b9681185762af59cae9324ff1630e4fb65d087d305b8a4d5c2201d80160405160405180910390a350505050565b6103f6610683565b73ffffffffffffffffffffffffffffffffffffffff16610414610187565b73ffffffffffffffffffffffffffffffffffffffff161461046a576040517f08c379a000000000000000000000000000000000000000000000000000000000815260040161046190610a8f565b60405180910390fd5b600160009054906101000a900473ffffffffffffffffffffffffffffffffffffffff1673ffffffffffffffffffffffffffffffffffffffff1663c50ed67584846040518363ffffffff1660e01b81526004016104c7929190610b6d565b600060405180830381600087803b1580156104e157600080fd5b505af11580156104f5573d6000803e3d6000fd5b50505050600260009054906101000a900473ffffffffffffffffffffffffffffffffffffffff1673ffffffffffffffffffffffffffffffffffffffff1663f103b433826040518263ffffffff1660e01b81526004016105549190610bf5565b600060405180830381600087803b15801561056e57600080fd5b505af1158015610582573d6000803e3d6000fd5b50505050505050565b610593610683565b73ffffffffffffffffffffffffffffffffffffffff166105b1610187565b73ffffffffffffffffffffffffffffffffffffffff1614610607576040517f08c379a00000000000000000000000000000000000000000000000000000000081526004016105fe90610a8f565b60405180910390fd5b600073ffffffffffffffffffffffffffffffffffffffff168173ffffffffffffffffffffffffffffffffffffffff161415610677576040517f08c379a000000000000000000000000000000000000000000000000000000000815260040161066e90610d5a565b60405180910390fd5b6106808161068b565b50565b600033905090565b60008060009054906101000a900473ffffffffffffffffffffffffffffffffffffffff169050816000806101000a81548173ffffffffffffffffffffffffffffffffffffffff021916908373ffffffffffffffffffffffffffffffffffffffff1602179055508173ffffffffffffffffffffffffffffffffffffffff168173ffffffffffffffffffffffffffffffffffffffff167f8be0079c531659141344cd1fd0a4f28419497f9722a3daafe3b4186f6b6457e060405160405180910390a35050565b600073ffffffffffffffffffffffffffffffffffffffff82169050919050565b600061077a8261074f565b9050919050565b61078a8161076f565b82525050565b60006020820190506107a56000830184610781565b92915050565b6000604051905090565b600080fd5b600080fd5b600080fd5b6000601f19601f8301169050919050565b7f4e487b7100000000000000000000000000000000000000000000000000000000600052604160045260246000fd5b61080d826107c4565b810181811067ffffffffffffffff8211171561082c5761082b6107d5565b5b80604052505050565b600061083f6107ab565b905061084b8282610804565b919050565b600067ffffffffffffffff82111561086b5761086a6107d5565b5b602082029050602081019050919050565b600080fd5b6000819050919050565b61089481610881565b811461089f57600080fd5b50565b6000813590506108b18161088b565b92915050565b60006108ca6108c584610850565b610835565b905080838252602082019050602084028301858111156108ed576108ec61087c565b5b835b81811015610916578061090288826108a2565b8452602084019350506020810190506108ef565b5050509392505050565b600082601f830112610935576109346107bf565b5b81356109458482602086016108b7565b91505092915050565b600080600060608486031215610967576109666107b5565b5b600084013567ffffffffffffffff811115610985576109846107ba565b5b61099186828701610920565b935050602084013567ffffffffffffffff8111156109b2576109b16107ba565b5b6109be86828701610920565b92505060406109cf868287016108a2565b9150509250925092565b6109e28161076f565b81146109ed57600080fd5b50565b6000813590506109ff816109d9565b92915050565b600060208284031215610a1b57610a1a6107b5565b5b6000610a29848285016109f0565b91505092915050565b600082825260208201905092915050565b7f4f776e61626c653a2063616c6c6572206973206e6f7420746865206f776e6572600082015250565b6000610a79602083610a32565b9150610a8482610a43565b602082019050919050565b60006020820190508181036000830152610aa881610a6c565b9050919050565b600081519050919050565b600082825260208201905092915050565b6000819050602082019050919050565b610ae481610881565b82525050565b6000610af68383610adb565b60208301905092915050565b6000602082019050919050565b6000610b1a82610aaf565b610b248185610aba565b9350610b2f83610acb565b8060005b83811015610b60578151610b478882610aea565b9750610b5283610b02565b925050600181019050610b33565b5085935050505092915050565b60006040820190508181036000830152610b878185610b0f565b90508181036020830152610b9b8184610b0f565b90509392505050565b600081519050610bb38161088b565b92915050565b600060208284031215610bcf57610bce6107b5565b5b6000610bdd84828501610ba4565b91505092915050565b610bef81610881565b82525050565b6000602082019050610c0a6000830184610be6565b92915050565b7f4e487b7100000000000000000000000000000000000000000000000000000000600052601160045260246000fd5b6000610c4a82610881565b9150610c5583610881565b9250827fffffffffffffffffffffffffffffffffffffffffffffffffffffffffffffffff03821115610c8a57610c89610c10565b5b828201905092915050565b6000608082019050610caa6000830187610781565b8181036020830152610cbc8186610b0f565b90508181036040830152610cd08185610b0f565b9050610cdf6060830184610be6565b95945050505050565b7f4f776e61626c653a206e6577206f776e657220697320746865207a65726f206160008201527f6464726573730000000000000000000000000000000000000000000000000000602082015250565b6000610d44602683610a32565b9150610d4f82610ce8565b604082019050919050565b60006020820190508181036000830152610d7381610d37565b905091905056fea2646970667358221220d56dfb5ee0c0ced000790fb0af5c21fc6dd938c35fb252cfcd0264dabab523f364736f6c634300080a0033",
  "immutableReferences": {},
  "source": "// SPDX-License-Identifier: MIT\r\npragma solidity ^0.8;\r\n\r\nimport \"@openzeppelin/contracts/access/Ownable.sol\";\r\nimport \"./Token/CowNFT.sol\";\r\nimport \"./Token/FarmNFT.sol\";\r\n\r\ncontract PresaleContract is Ownable {\r\n\r\n    CowNFT cowNFT;\r\n    FarmNFT farmNFT;\r\n\r\n    constructor (address _cowNFT, address _farmNFT) {\r\n        cowNFT = CowNFT(_cowNFT);\r\n        farmNFT = FarmNFT(_farmNFT);\r\n        transferOwnership(msg.sender);\r\n    }\r\n\r\n    function updateMaxSupplys(uint256[] memory type_ids, uint256[] memory amounts, uint256 farm_amount) public onlyOwner {\r\n        cowNFT.updateMaxSupplys(type_ids, amounts);\r\n        farmNFT.updateMaxSupply(farm_amount);\r\n    }\r\n\r\n    event Presaled(\r\n        address indexed contractAddress,\r\n        address indexed creator\r\n    );\r\n\r\n    function presale(uint256[] memory cow_type_ids, uint256[] memory cow_amounts, uint256 farm_amount) \r\n        public payable {\r\n\r\n        uint256 price = cowNFT.getPrice(cow_type_ids, cow_amounts);\r\n        price += farmNFT.getPrice(farm_amount);\r\n\r\n        cowNFT.createTokens/* {value: msg.value} */(msg.sender, cow_type_ids, cow_amounts, price);\r\n        // farmNFT.createToken{ value: msg.value }(msg.sender, farm_amount, price);\r\n        // Transfer Money Here...\r\n        // payable(owner()).transfer(msg.sender);\r\n        emit Presaled(address(this), msg.sender);\r\n    }\r\n\r\n}",
  "sourcePath": "E:\\2.Dev\\Clients\\Indonesia -- Willy(NFT)\\FarmEnergy\\Presale\\src\\contracts\\PresaleContract.sol",
  "compiler": {
    "name": "solc",
    "version": "0.8.10+commit.fc410830.Emscripten.clang"
  },
  "schemaVersion": "3.4.3",
  "updatedAt": "2021-12-28T06:13:32.943Z",
  "networkType": "ethereum",
  "devdoc": {
    "kind": "dev",
    "methods": {
      "owner()": {
        "details": "Returns the address of the current owner."
      },
      "renounceOwnership()": {
        "details": "Leaves the contract without owner. It will not be possible to call `onlyOwner` functions anymore. Can only be called by the current owner. NOTE: Renouncing ownership will leave the contract without an owner, thereby removing any functionality that is only available to the owner."
      },
      "transferOwnership(address)": {
        "details": "Transfers ownership of the contract to a new account (`newOwner`). Can only be called by the current owner."
      }
    },
    "version": 1
  },
  "userdoc": {
    "kind": "user",
    "methods": {},
    "version": 1
  }
}